{"contracts/token/ZoneToken.sol":{"ZoneToken":{"abi":[{"inputs":[{"internalType":"address","name":"_marketingWallet","type":"address"}],"stateMutability":"nonpayable","type":"constructor"},{"anonymous":false,"inputs":[{"indexed":true,"internalType":"address","name":"owner","type":"address"},{"indexed":true,"internalType":"address","name":"spender","type":"address"},{"indexed":false,"internalType":"uint256","name":"value","type":"uint256"}],"name":"Approval","type":"event"},{"anonymous":false,"inputs":[{"indexed":false,"internalType":"address","name":"account","type":"address"}],"name":"Paused","type":"event"},{"anonymous":false,"inputs":[{"indexed":true,"internalType":"bytes32","name":"role","type":"bytes32"},{"indexed":true,"internalType":"bytes32","name":"previousAdminRole","type":"bytes32"},{"indexed":true,"internalType":"bytes32","name":"newAdminRole","type":"bytes32"}],"name":"RoleAdminChanged","type":"event"},{"anonymous":false,"inputs":[{"indexed":true,"internalType":"bytes32","name":"role","type":"bytes32"},{"indexed":true,"internalType":"address","name":"account","type":"address"},{"indexed":true,"internalType":"address","name":"sender","type":"address"}],"name":"RoleGranted","type":"event"},{"anonymous":false,"inputs":[{"indexed":true,"internalType":"bytes32","name":"role","type":"bytes32"},{"indexed":true,"internalType":"address","name":"account","type":"address"},{"indexed":true,"internalType":"address","name":"sender","type":"address"}],"name":"RoleRevoked","type":"event"},{"anonymous":false,"inputs":[{"indexed":true,"internalType":"address","name":"from","type":"address"},{"indexed":true,"internalType":"address","name":"to","type":"address"},{"indexed":false,"internalType":"uint256","name":"value","type":"uint256"}],"name":"Transfer","type":"event"},{"anonymous":false,"inputs":[{"indexed":false,"internalType":"address","name":"account","type":"address"}],"name":"Unpaused","type":"event"},{"inputs":[],"name":"DEFAULT_ADMIN_ROLE","outputs":[{"internalType":"bytes32","name":"","type":"bytes32"}],"stateMutability":"view","type":"function"},{"inputs":[],"name":"INITIAL_SUPPLY","outputs":[{"internalType":"uint256","name":"","type":"uint256"}],"stateMutability":"view","type":"function"},{"inputs":[],"name":"PAUSER_ROLE","outputs":[{"internalType":"bytes32","name":"","type":"bytes32"}],"stateMutability":"view","type":"function"},{"inputs":[],"name":"TAX_DENOMINATOR","outputs":[{"internalType":"uint256","name":"","type":"uint256"}],"stateMutability":"view","type":"function"},{"inputs":[{"internalType":"address","name":"owner","type":"address"},{"internalType":"address","name":"spender","type":"address"}],"name":"allowance","outputs":[{"internalType":"uint256","name":"","type":"uint256"}],"stateMutability":"view","type":"function"},{"inputs":[{"internalType":"address","name":"spender","type":"address"},{"internalType":"uint256","name":"amount","type":"uint256"}],"name":"approve","outputs":[{"internalType":"bool","name":"","type":"bool"}],"stateMutability":"nonpayable","type":"function"},{"inputs":[{"internalType":"address","name":"account","type":"address"}],"name":"balanceOf","outputs":[{"internalType":"uint256","name":"","type":"uint256"}],"stateMutability":"view","type":"function"},{"inputs":[{"internalType":"uint256","name":"amount","type":"uint256"}],"name":"burn","outputs":[],"stateMutability":"nonpayable","type":"function"},{"inputs":[{"internalType":"address","name":"account","type":"address"},{"internalType":"uint256","name":"amount","type":"uint256"}],"name":"burnFrom","outputs":[],"stateMutability":"nonpayable","type":"function"},{"inputs":[],"name":"buyTax","outputs":[{"internalType":"uint256","name":"","type":"uint256"}],"stateMutability":"view","type":"function"},{"inputs":[],"name":"decimals","outputs":[{"internalType":"uint8","name":"","type":"uint8"}],"stateMutability":"view","type":"function"},{"inputs":[{"internalType":"address","name":"spender","type":"address"},{"internalType":"uint256","name":"subtractedValue","type":"uint256"}],"name":"decreaseAllowance","outputs":[{"internalType":"bool","name":"","type":"bool"}],"stateMutability":"nonpayable","type":"function"},{"inputs":[{"internalType":"contract IERC20","name":"token","type":"address"}],"name":"emergencyWithdraw","outputs":[],"stateMutability":"nonpayable","type":"function"},{"inputs":[],"name":"emergencyWithdrawETH","outputs":[],"stateMutability":"nonpayable","type":"function"},{"inputs":[{"internalType":"address","name":"account","type":"address"},{"internalType":"bool","name":"excluded","type":"bool"}],"name":"excludeFromFee","outputs":[],"stateMutability":"nonpayable","type":"function"},{"inputs":[{"internalType":"bytes32","name":"role","type":"bytes32"}],"name":"getRoleAdmin","outputs":[{"internalType":"bytes32","name":"","type":"bytes32"}],"stateMutability":"view","type":"function"},{"inputs":[{"internalType":"bytes32","name":"role","type":"bytes32"},{"internalType":"address","name":"account","type":"address"}],"name":"grantRole","outputs":[],"stateMutability":"nonpayable","type":"function"},{"inputs":[{"internalType":"bytes32","name":"role","type":"bytes32"},{"internalType":"address","name":"account","type":"address"}],"name":"hasRole","outputs":[{"internalType":"bool","name":"","type":"bool"}],"stateMutability":"view","type":"function"},{"inputs":[{"internalType":"address","name":"spender","type":"address"},{"internalType":"uint256","name":"addedValue","type":"uint256"}],"name":"increaseAllowance","outputs":[{"internalType":"bool","name":"","type":"bool"}],"stateMutability":"nonpayable","type":"function"},{"inputs":[{"internalType":"address","name":"","type":"address"}],"name":"isExcludedFromFee","outputs":[{"internalType":"bool","name":"","type":"bool"}],"stateMutability":"view","type":"function"},{"inputs":[],"name":"lpPairBNB","outputs":[{"internalType":"address","name":"","type":"address"}],"stateMutability":"view","type":"function"},{"inputs":[],"name":"lpPairUSDT","outputs":[{"internalType":"address","name":"","type":"address"}],"stateMutability":"view","type":"function"},{"inputs":[],"name":"lpRewardShare","outputs":[{"internalType":"uint256","name":"","type":"uint256"}],"stateMutability":"view","type":"function"},{"inputs":[],"name":"marketingShare","outputs":[{"internalType":"uint256","name":"","type":"uint256"}],"stateMutability":"view","type":"function"},{"inputs":[],"name":"marketingWallet","outputs":[{"internalType":"address","name":"","type":"address"}],"stateMutability":"view","type":"function"},{"inputs":[],"name":"minTokensBeforeSwap","outputs":[{"internalType":"uint256","name":"","type":"uint256"}],"stateMutability":"view","type":"function"},{"inputs":[],"name":"name","outputs":[{"internalType":"string","name":"","type":"string"}],"stateMutability":"view","type":"function"},{"inputs":[],"name":"pause","outputs":[],"stateMutability":"nonpayable","type":"function"},{"inputs":[],"name":"paused","outputs":[{"internalType":"bool","name":"","type":"bool"}],"stateMutability":"view","type":"function"},{"inputs":[{"internalType":"bytes32","name":"role","type":"bytes32"},{"internalType":"address","name":"account","type":"address"}],"name":"renounceRole","outputs":[],"stateMutability":"nonpayable","type":"function"},{"inputs":[{"internalType":"bytes32","name":"role","type":"bytes32"},{"internalType":"address","name":"account","type":"address"}],"name":"revokeRole","outputs":[],"stateMutability":"nonpayable","type":"function"},{"inputs":[],"name":"sellTax","outputs":[{"internalType":"uint256","name":"","type":"uint256"}],"stateMutability":"view","type":"function"},{"inputs":[{"internalType":"address","name":"_marketingWallet","type":"address"}],"name":"setMarketingWallet","outputs":[],"stateMutability":"nonpayable","type":"function"},{"inputs":[{"internalType":"uint256","name":"_minTokens","type":"uint256"}],"name":"setMinTokensBeforeSwap","outputs":[],"stateMutability":"nonpayable","type":"function"},{"inputs":[{"internalType":"uint256","name":"_lpRewardShare","type":"uint256"},{"internalType":"uint256","name":"_marketingShare","type":"uint256"}],"name":"setShares","outputs":[],"stateMutability":"nonpayable","type":"function"},{"inputs":[{"internalType":"uint256","name":"_buyTax","type":"uint256"},{"internalType":"uint256","name":"_sellTax","type":"uint256"}],"name":"setTaxes","outputs":[],"stateMutability":"nonpayable","type":"function"},{"inputs":[{"internalType":"bytes4","name":"interfaceId","type":"bytes4"}],"name":"supportsInterface","outputs":[{"internalType":"bool","name":"","type":"bool"}],"stateMutability":"view","type":"function"},{"inputs":[],"name":"symbol","outputs":[{"internalType":"string","name":"","type":"string"}],"stateMutability":"view","type":"function"},{"inputs":[],"name":"totalSupply","outputs":[{"internalType":"uint256","name":"","type":"uint256"}],"stateMutability":"view","type":"function"},{"inputs":[{"internalType":"address","name":"recipient","type":"address"},{"internalType":"uint256","name":"amount","type":"uint256"}],"name":"transfer","outputs":[{"internalType":"bool","name":"","type":"bool"}],"stateMutability":"nonpayable","type":"function"},{"inputs":[{"internalType":"address","name":"sender","type":"address"},{"internalType":"address","name":"recipient","type":"address"},{"internalType":"uint256","name":"amount","type":"uint256"}],"name":"transferFrom","outputs":[{"internalType":"bool","name":"","type":"bool"}],"stateMutability":"nonpayable","type":"function"},{"inputs":[],"name":"uniswapV2Router","outputs":[{"internalType":"contract IUniswapV2Router02","name":"","type":"address"}],"stateMutability":"view","type":"function"},{"inputs":[],"name":"unpause","outputs":[],"stateMutability":"nonpayable","type":"function"},{"stateMutability":"payable","type":"receive"}],"evm":{"bytecode":{"linkReferences":{},"object":"60a0604090808252346200082c57620000329062002f82803803809162000027828562000863565b833981019062000887565b815190620000408262000831565b600a8252602090692d27a722902a37b5b2b760b11b82840152835190620000678262000831565b6004808352635a4f4e4560e01b848401528451909490926001600160401b039081851162000817576003908154956001948588811c981680156200080c575b89891014620007f7578190601f98898111620007a1575b5089908983116001146200073a576000926200072e575b505060001982851b1c191690851b1782555b8051928311620007195787548481811c911680156200070e575b88821014620006f95790818785949311620006a1575b50879087841160011462000636576000936200062a575b505082841b92600019911b1c19161785555b60ff1991826005541660055581600755601e600855601e600955600a80556014600b55683635c9adc5dea0000060115560018060a01b03809116908115620005e95760008052600686528760002033600052865260ff88600020541615620005ae575b7f65d7a28e3265b37a6474929f336521b332c1681b933f6cb9f3376673440d862a80600052600687528860002033600052875260ff8960002054161562000571575b50600c80546001600160a01b031990811690931790557310ed43c718714eb63d5aa57b78b54704e256024e6080819052885163c45a015560e01b8082529193919088818b81885afa908115620005665760009162000544575b508a516315ab88c960e31b8152918b8a848d818a5afa8015620005395760448c9288928f97849060009262000514575b50600091925197889586946364e329cb60e11b9b8c87523090870152166024850152165af191821562000509578a928691600091620004e7575b501684600d541617600d558a8c518097819382525afa938415620004b857600094620004c3575b508951908152308982015287816044816000877355d398326f99059ff775485246999027b3197955998a6024850152165af18015620004b857839160009162000484575b501690600e541617600e5530600052600f865287600020838582541617905533600052876000208385825416179055600c5416600052866000208284825416179055600052856000209182541617905533156200044557506002546a52b7d2dcc80cd2e4000000928382018092116200043057506000917fddf252ad1be2c89b69c2b068fc378daa952ba7f163c4a11628f55a4df523b3ef9160025533835282815284832084815401905584519384523393a3516126b99081620008a9823960805181818161105401528181611d8b01528181611de801528181611e1001528181611e9c01528181611f2701528181611f5701528181611fe301528181612080015281816120c50152818161217f0152818161229101526123000152f35b601190634e487b7160e01b6000525260246000fd5b90606493519262461bcd60e51b845283015260248201527f45524332303a206d696e7420746f20746865207a65726f2061646472657373006044820152fd5b620004a99150893d8b11620004b0575b620004a0818362000863565b81019062000887565b3862000312565b503d62000494565b8a513d6000823e3d90fd5b620004df919450883d8a11620004b057620004a0818362000863565b9238620002ce565b620005029150843d8611620004b057620004a0818362000863565b38620002a7565b8c513d6000823e3d90fd5b600092506200053290873d8911620004b057620004a0818362000863565b916200026d565b50513d6000823e3d90fd5b6200055f9150893d8b11620004b057620004a0818362000863565b386200023d565b8b513d6000823e3d90fd5b8060005260068752886000203360005287528860002084868254161790553390339060008051602062002f62833981519152600080a438620001e4565b6000805260068652876000203360005286528760002083858254161790553333600060008051602062002f628339815191528180a4620001a2565b60648786888b519262461bcd60e51b845283015260248201527f4d61726b6574696e672077616c6c65742063616e6e6f74206265207a65726f006044820152fd5b0151915038806200012d565b9190859450601f198416928a600052896000209360005b8b8282106200068a57505085116200066f575b50505050811b0185556200013f565b01519060f884600019921b161c191690553880808062000660565b83850151875589989096019593840193016200064d565b9091925088600052876000208780860160051c8201928a8710620006ef575b91879187969594930160051c01915b828110620006df57505062000116565b60008155869550879101620006cf565b92508192620006c0565b602289634e487b7160e01b6000525260246000fd5b90607f169062000100565b604188634e487b7160e01b6000525260246000fd5b015190503880620000d4565b90879350601f19831691866000528b6000209260005b8d8282106200078a575050841162000771575b505050811b018255620000e6565b015160001983871b60f8161c1916905538808062000763565b8385015186558b9790950194938401930162000750565b90915084600052896000208980850160051c8201928c8610620007ed575b918991869594930160051c01915b828110620007dd575050620000bd565b60008155859450899101620007cd565b92508192620007bf565b60228a634e487b7160e01b6000525260246000fd5b97607f1697620000a6565b604187634e487b7160e01b6000525260246000fd5b600080fd5b604081019081106001600160401b038211176200084d57604052565b634e487b7160e01b600052604160045260246000fd5b601f909101601f19168101906001600160401b038211908210176200084d57604052565b908160209103126200082c57516001600160a01b03811681036200082c579056fe6080604081815260049182361015610022575b505050361561002057600080fd5b005b600092833560e01c91826301ffc9a7146111c15750816306fdde03146110cc57816309218ee7146110ad578163095ea7b3146110835781631694505e1461103f57816318160ddd1461102057816323b872dd14610f62578163248a9ca314610f375781632aca3e7d14610ec45781632f2ff15d14610e175781632f3dd45a14610dee5781632ff2e9dc14610dc8578163313ce56714610dac57816336568abe14610d1a5781633950935114610cca5781633f4ba83a14610c3457816342966c6814610c1657816348a4647314610bf45781634f7041a514610bd55781635342acb414610b975781635c975abb14610b735781635d098b3814610ae05781636ff1c9bc1461094c57816370a082311461091557816375f0a874146108ec57816379cc67901461083457816384536017146107415781638456cb59146106ad57816391d148541461066657816395d89b411461056357816396430ec41461053a578163a217fddf1461051f578163a457c2d714610477578163a51c9ace1461045a578163a9059cbb14610429578163b23bed451461040a578163c647b20e14610365578163cc1776d314610346578163d547741f1461030357508063dd62ed3e146102bb578063df8408fe14610266578063e5d41c6b146102485763e63ab1e91461020b5780610012565b34610244578160031936011261024457602090517f65d7a28e3265b37a6474929f336521b332c1681b933f6cb9f3376673440d862a8152f35b5080fd5b50346102445781600319360112610244576020906011549051908152f35b503461024457806003193601126102445761027f611263565b90602435918215158093036102b7576102966112aa565b60018060a01b03168352600f60205282209060ff8019835416911617905580f35b8380fd5b5034610244578060031936011261024457806020926102d8611263565b6102e061127e565b6001600160a01b0391821683526001865283832091168252845220549051908152f35b9190503461034257806003193601126103425761033f913561033a600161032861127e565b938387526006602052862001546115e4565b611772565b80f35b8280fd5b5050346102445781600319360112610244576020906009549051908152f35b919050346103425761037636611294565b9290916103816112aa565b606483116103d4576101ea841161039d57505060085560095580f35b906020606492519162461bcd60e51b835282015260116024820152700a6cad8d840e8c2f040e8dede40d0d2ced607b1b6044820152fd5b906020606492519162461bcd60e51b8352820152601060248201526f084eaf240e8c2f040e8dede40d0d2ced60831b6044820152fd5b505034610244578160031936011261024457602090600a549051908152f35b505034610244578060031936011261024457602090610453610449611263565b6024359033611c0b565b5160018152f35b505034610244578160031936011261024457602090516103e88152f35b9050823461051c578260031936011261051c57610492611263565b918360243592338152600160205281812060018060a01b03861682526020522054908282106104cb57602085610453858503873361180b565b608490602086519162461bcd60e51b8352820152602560248201527f45524332303a2064656372656173656420616c6c6f77616e63652062656c6f77604482015264207a65726f60d81b6064820152fd5b80fd5b50503461024457816003193601126102445751908152602090f35b505034610244578160031936011261024457600e5490516001600160a01b039091168152602090f35b838334610244578160031936011261024457805191809380549160019083821c9282851694851561065c575b60209586861081146106495785895290811561062557506001146105cd575b6105c987876105bf828c0383611750565b5191829182611237565b0390f35b81529295507f8a35acfbc15ff81a39ae7d344fd709f28e8600b4aa8c65c6b64bfe7fe36bd19b5b82841061061257505050826105c9946105bf928201019486806105ae565b80548685018801529286019281016105f4565b60ff19168887015250505050151560051b83010192506105bf826105c986806105ae565b634e487b7160e01b845260228352602484fd5b93607f169361058f565b9050346103425781600319360112610342578160209360ff9261068761127e565b90358252600686528282206001600160a01b039091168252855220549151911615158152f35b9050346103425782600319360112610342576106c761149e565b6005549060ff821661070b575060ff1916600117600555513381527f62e78cea01bee320cd4e420270b5ea74000d11b0c9f74754ebdbfc544b05a25890602090a180f35b606490602084519162461bcd60e51b8352820152601060248201526f14185d5cd8589b194e881c185d5cd95960821b6044820152fd5b9190503461034257826003193601126103425761075c6112aa565b4780156107fc578380808093335af13d156107f7573d67ffffffffffffffff81116107e457825190610798601f8201601f191660200183611750565b81528460203d92013e5b156107ab578280f35b906020606492519162461bcd60e51b83528201526013602482015272109390881dda5d1a191c985dc819985a5b1959606a1b6044820152fd5b634e487b7160e01b855260418452602485fd5b6107a2565b815162461bcd60e51b815260208185015260126024820152714e6f20424e4220746f20776974686472617760701b6044820152606490fd5b8391503461024457826003193601126102445761084f611263565b6001600160a01b0381168352600160208181528585203386529052848420546024359390918201610886575b8461033f858561190d565b8382106108a9575061033f939450826108a19103338361180b565b83928561087b565b606490602087519162461bcd60e51b8352820152601d60248201527f45524332303a20696e73756666696369656e7420616c6c6f77616e63650000006044820152fd5b505034610244578160031936011261024457600c5490516001600160a01b039091168152602090f35b5050346102445760203660031901126102445760209181906001600160a01b0361093d611263565b16815280845220549051908152f35b83833461024457602090816003193601126103425783356001600160a01b03811694908590036102b75761097e6112aa565b308514610a9f5781516370a0823160e01b81523082820152908382602481895afa918215610a95578592610a62575b508115610a2757825163a9059cbb60e01b8152339181019182526020820192909252909190839083908190036040018187895af1908115610a1e57506109f1578280f35b81610a1092903d10610a17575b610a088183611750565b81019061266b565b5081808280f35b503d6109fe565b513d85823e3d90fd5b825162461bcd60e51b815290810184905260156024820152744e6f20746f6b656e7320746f20776974686472617760581b6044820152606490fd5b9091508381813d8311610a8e575b610a7a8183611750565b81010312610a8a575190866109ad565b8480fd5b503d610a70565b83513d87823e3d90fd5b82606492519162461bcd60e51b8352820152601b60248201527f43616e6e6f74207769746864726177205a4f4e4520746f6b656e7300000000006044820152fd5b90503461034257602036600319011261034257610afb611263565b610b036112aa565b6001600160a01b0316918215610b305750506bffffffffffffffffffffffff60a01b600c541617600c5580f35b906020606492519162461bcd60e51b8352820152601f60248201527f4d61726b6574696e672077616c6c65742063616e6e6f74206265207a65726f006044820152fd5b50503461024457816003193601126102445760209060ff6005541690519015158152f35b5050346102445760203660031901126102445760209160ff9082906001600160a01b03610bc2611263565b168152600f855220541690519015158152f35b5050346102445781600319360112610244576020906008549051908152f35b83903461024457602036600319011261024457610c0f6112aa565b3560115580f35b8390346102445760203660031901126102445761033f90353361190d565b905034610342578260031936011261034257610c4e61149e565b6005549060ff821615610c90575060ff1916600555513381527f5db9ee0a495bf2e6ff9c91a7834c1ba4fdd244a5e8aa4e537bd38aeae4b073aa90602090a180f35b606490602084519162461bcd60e51b8352820152601460248201527314185d5cd8589b194e881b9bdd081c185d5cd95960621b6044820152fd5b505034610244578060031936011261024457610453602092610d13610ced611263565b338352600186528483206001600160a01b038216845286529184902054602435906117e8565b903361180b565b83915034610244578260031936011261024457610d3561127e565b90336001600160a01b03831603610d51579061033f9135611772565b608490602085519162461bcd60e51b8352820152602f60248201527f416363657373436f6e74726f6c3a2063616e206f6e6c792072656e6f756e636560448201526e103937b632b9903337b91039b2b63360891b6064820152fd5b5050346102445781600319360112610244576020905160128152f35b505034610244578160031936011261024457602090516a52b7d2dcc80cd2e40000008152f35b505034610244578160031936011261024457600d5490516001600160a01b039091168152602090f35b9050346103425781600319360112610342573590610e3361127e565b908284526006602052610e4b600182862001546115e4565b828452600660209081528185206001600160a01b039093168086529290528084205460ff1615610e79578380f35b82845260066020528084208285526020528320600160ff1982541617905533917f2f8788117e7eff1d82e926ec794901d17c78024a50270940304540a733656f0d8480a43880808380f35b9190503461034257610ed536611294565b929091610ee06112aa565b6103e8610eed85856117e8565b11610efd575050600a55600b5580f35b906020606492519162461bcd60e51b835282015260146024820152730a8dee8c2d840e6d0c2e4ca40e8dede40d0d2ced60631b6044820152fd5b9050346103425760203660031901126103425781602093600192358152600685522001549051908152f35b9050823461051c57606036600319011261051c57610f7e611263565b9183610f8861127e565b92610f97604435809587611c0b565b6001600160a01b0385168152600160209081528282203383529052205490828210610fcc57602085610453858503338861180b565b608490602086519162461bcd60e51b8352820152602860248201527f45524332303a207472616e7366657220616d6f756e74206578636565647320616044820152676c6c6f77616e636560c01b6064820152fd5b5050346102445781600319360112610244576020906002549051908152f35b505034610244578160031936011261024457517f00000000000000000000000000000000000000000000000000000000000000006001600160a01b03168152602090f35b5050346102445780600319360112610244576020906104536110a3611263565b602435903361180b565b505034610244578160031936011261024457602090600b549051908152f35b91905034610342578260031936011261034257805191836003549060019082821c9282811680156111b7575b60209586861082146111a457508488529081156111825750600114611129575b6105c986866105bf828b0383611750565b929550600383527fc2575a0e9e593c00f959f8c92f12db2869c3395a3b0502d05e2516446f71f85b5b82841061116f57505050826105c9946105bf928201019438611118565b8054868501880152928601928101611152565b60ff191687860152505050151560051b83010192506105bf826105c938611118565b634e487b7160e01b845260229052602483fd5b93607f16936110f8565b849134610342576020366003190112610342573563ffffffff60e01b81168091036103425760209250637965db0b60e01b8114908115611203575b5015158152f35b6301ffc9a760e01b149050836111fc565b60005b8381106112275750506000910152565b8181015183820152602001611217565b604091602082526112578151809281602086015260208686019101611214565b601f01601f1916010190565b600435906001600160a01b038216820361127957565b600080fd5b602435906001600160a01b038216820361127957565b6040906003190112611279576004359060243590565b3360009081527f54cdd369e4e8a8515e52ca72ec816c2101831ad1f18bf44102ed171459c9b4f8602090815260408083205490929060ff16156112ec57505050565b6112f533611a4e565b8351908261130283611734565b6042835284830193606036863783511561148a576030855383519060019182101561148a5790607860218601536041915b81831161141c575050506113da576113889385936113c0936113b16048946113d69951988576020b1b1b2b9b9a1b7b73a3937b61d1030b1b1b7bab73a1604d1b8b978801528251928391603789019101611214565b8401917001034b99036b4b9b9b4b733903937b6329607d1b603784015251809386840190611214565b01036028810185520183611750565b5162461bcd60e51b815291829160048301611237565b0390fd5b60648486519062461bcd60e51b825280600483015260248201527f537472696e67733a20686578206c656e67746820696e73756666696369656e746044820152fd5b909192600f81166010811015611476576f181899199a1a9b1b9c1cb0b131b232b360811b901a61144c8588611a27565b5360041c92801561146257600019019190611333565b634e487b7160e01b82526011600452602482fd5b634e487b7160e01b83526032600452602483fd5b634e487b7160e01b81526032600452602490fd5b3360009081527fe09f975e15f8f53f24cbbc282b13c40b84df485fcdb8d3997fa103dc5a4ef84160209081526040808320549092907f65d7a28e3265b37a6474929f336521b332c1681b933f6cb9f3376673440d862a9060ff16156115035750505050565b61150c33611a4e565b84519161151883611734565b6042835284830193606036863783511561148a576030855383519060019182101561148a5790607860218601536041915b81831161159e575050506113da576113889385936113c0936113b16048946113d69951988576020b1b1b2b9b9a1b7b73a3937b61d1030b1b1b7bab73a1604d1b8b978801528251928391603789019101611214565b909192600f81166010811015611476576f181899199a1a9b1b9c1cb0b131b232b360811b901a6115ce8588611a27565b5360041c92801561146257600019019190611549565b600081815260209060068252604092838220338352835260ff84832054161561160d5750505050565b61161633611a4e565b84519161162283611734565b6042835284830193606036863783511561148a576030855383519060019182101561148a5790607860218601536041915b8183116116a8575050506113da576113889385936113c0936113b16048946113d69951988576020b1b1b2b9b9a1b7b73a3937b61d1030b1b1b7bab73a1604d1b8b978801528251928391603789019101611214565b909192600f81166010811015611476576f181899199a1a9b1b9c1cb0b131b232b360811b901a6116d88588611a27565b5360041c92801561146257600019019190611653565b67ffffffffffffffff811161170257604052565b634e487b7160e01b600052604160045260246000fd5b6060810190811067ffffffffffffffff82111761170257604052565b6080810190811067ffffffffffffffff82111761170257604052565b90601f8019910116810190811067ffffffffffffffff82111761170257604052565b906000918083526006602052604083209160018060a01b03169182845260205260ff6040842054166117a357505050565b8083526006602052604083208284526020526040832060ff1981541690557ff6391f5c32d9c69d2a47ea670b442974b53935d1edc7fd64eb21e047a839171b339380a4565b919082018092116117f557565b634e487b7160e01b600052601160045260246000fd5b6001600160a01b039081169182156118bc571691821561186c5760207f8c5be1e5ebec7d5bd14f71427d1e84f3dd0314c0f7b2291e5b200ac8c7c3b925918360005260018252604060002085600052825280604060002055604051908152a3565b60405162461bcd60e51b815260206004820152602260248201527f45524332303a20617070726f766520746f20746865207a65726f206164647265604482015261737360f01b6064820152608490fd5b60405162461bcd60e51b8152602060048201526024808201527f45524332303a20617070726f76652066726f6d20746865207a65726f206164646044820152637265737360e01b6064820152608490fd5b6001600160a01b031680156119c55760009181835282602052604083205481811061197557817fddf252ad1be2c89b69c2b068fc378daa952ba7f163c4a11628f55a4df523b3ef926020928587528684520360408620558060025403600255604051908152a3565b60405162461bcd60e51b815260206004820152602260248201527f45524332303a206275726e20616d6f756e7420657863656564732062616c616e604482015261636560f01b6064820152608490fd5b60405162461bcd60e51b815260206004820152602160248201527f45524332303a206275726e2066726f6d20746865207a65726f206164647265736044820152607360f81b6064820152608490fd5b818102929181159184041417156117f557565b908151811015611a38570160200190565b634e487b7160e01b600052603260045260246000fd5b60405190611a5b82611718565b602a8252602082016040368237825115611a3857603090538151600190811015611a3857607860218401536029905b808211611ade575050611a9a5790565b606460405162461bcd60e51b815260206004820152602060248201527f537472696e67733a20686578206c656e67746820696e73756666696369656e746044820152fd5b9091600f81166010811015611b37576f181899199a1a9b1b9c1cb0b131b232b360811b901a611b0d8486611a27565b5360041c918015611b22576000190190611a8a565b60246000634e487b7160e01b81526011600452fd5b60246000634e487b7160e01b81526032600452fd5b15611b5357565b60405162461bcd60e51b815260206004820152602560248201527f45524332303a207472616e736665722066726f6d20746865207a65726f206164604482015264647265737360d81b6064820152608490fd5b15611bad57565b60405162461bcd60e51b815260206004820152602360248201527f45524332303a207472616e7366657220746f20746865207a65726f206164647260448201526265737360e81b6064820152608490fd5b919082039182116117f557565b6001600160a01b038116929190611c23841515611b4c565b611c376001600160a01b0383161515611ba6565b82156124af5760ff600554166124725760ff601054166124685730600052600060205260406000205493601154851015908161245a575b81612444575b8161242e575b81612414575b50806123f1575b611cf4575b600d54611cca94506001600160a01b038381169116148015611cdd575b611cb6611cbd91856125da565b8094611bfe565b9280611ccc575b50612506565b565b611cd7903083612506565b38611cc4565b50600e546001600160a01b03838116911614611ca9565b600160ff196010541617601055600a54611d1b611d118287611a14565b91600b54906117e8565b9485156123db57611d2f9086830490611bfe565b806123be575b50848104611d53575b50611cca935060ff1960105416601055611c8c565b604051611d5f81611718565b60028152604036602083013730611d7582612633565b526040516315ab88c960e31b81526020816004817f00000000000000000000000000000000000000000000000000000000000000006001600160a01b03165afa9081156121e55760009161237c575b50611dce82612640565b6001600160a01b039182169052611e0e9087840460021c907f0000000000000000000000000000000000000000000000000000000000000000163061180b565b7f00000000000000000000000000000000000000000000000000000000000000006001600160a01b03163b15611279576040518091635c11d79560e01b825260a4820188850460021c60048401526000602484015260a060448401528151809152602060c4840192019060005b81811061235a575050306064840152504260848301526000919081900381837f00000000000000000000000000000000000000000000000000000000000000006001600160a01b03165af180156121e55761234b575b504780612275575b50604051611ee681611718565b60028152604036602083013730611efc82612633565b527355d398326f99059ff775485246999027b3197955611f1b82612640565b52611f5586830460021c7f00000000000000000000000000000000000000000000000000000000000000006001600160a01b03163061180b565b7f00000000000000000000000000000000000000000000000000000000000000006001600160a01b03163b15611279576040518091635c11d79560e01b825260a4820188850460021c60048401526000602484015260a060448401528151809152602060c4840192019060005b818110612253575050306064840152504260848301526000919081900381837f00000000000000000000000000000000000000000000000000000000000000006001600160a01b03165af180156121e557612244575b506040516370a0823160e01b8152306004820152946020866024817355d398326f99059ff775485246999027b31979555afa9586156121e557600096612210575b5085612066575b50611d3e565b6120799104600281901c9060011c611bfe565b936120ae857f00000000000000000000000000000000000000000000000000000000000000006001600160a01b03163061180b565b60405163095ea7b360e01b81526001600160a01b037f00000000000000000000000000000000000000000000000000000000000000001660048201526024810182905260208160448160007355d398326f99059ff775485246999027b31979555af180156121e5576121f1575b506040519462e8e33760e81b86523060048701527355d398326f99059ff775485246999027b319795560248701526044860152606485015260006084850152600060a48501523060c48501524260e485015260608461010481600060018060a01b037f0000000000000000000000000000000000000000000000000000000000000000165af19384156121e557611cca946121b7575b80612060565b6121d79060603d81116121de575b6121cf8183611750565b810190612650565b50506121b1565b503d6121c5565b6040513d6000823e3d90fd5b6122099060203d602011610a1757610a088183611750565b503861211b565b9095506020813d60201161223c575b8161222c60209383611750565b8101031261127957519438612059565b3d915061221f565b61224d906116ee565b38612018565b82516001600160a01b0316845285945060209384019390920191600101611fc2565b606061228b87840460021c88850460011c611bfe565b6122bf817f00000000000000000000000000000000000000000000000000000000000000006001600160a01b03163061180b565b60c46040518094819363f305d71960e01b8352306004840152602483015260006044830152600060648301523060848301524260a483015260018060a01b037f0000000000000000000000000000000000000000000000000000000000000000165af180156121e55715611ed9576123449060603d81116121de576121cf8183611750565b5050611ed9565b612354906116ee565b38611ed1565b82516001600160a01b0316845285945060209384019390920191600101611e7b565b90506020813d6020116123b6575b8161239760209383611750565b8101031261127957516001600160a01b03811681036112795738611dc4565b3d915061238a565b600c546123d591906001600160a01b031630612506565b38611d35565b634e487b7160e01b600052601260045260246000fd5b506001600160a01b0382166000908152600f602052604090205460ff1615611c87565b9050600052600f60205260ff604060002054161538611c80565b600e546001600160a01b03168114159150611c7a565b600d546001600160a01b03168114159150611c74565b60105460ff16159150611c6e565b611cca9350612506565b60405162461bcd60e51b8152602060048201526015602482015274151bdad95b881d1c985b9cd9995c881c185d5cd959605a1b6044820152606490fd5b60405162461bcd60e51b815260206004820152602960248201527f5472616e7366657220616d6f756e74206d7573742062652067726561746572206044820152687468616e207a65726f60b81b6064820152608490fd5b6001600160a01b039081169161251d831515611b4c565b169161252a831515611ba6565b60008281528060205260408120549180831061258657604082827fddf252ad1be2c89b69c2b068fc378daa952ba7f163c4a11628f55a4df523b3ef958760209652828652038282205586815220818154019055604051908152a3565b60405162461bcd60e51b815260206004820152602660248201527f45524332303a207472616e7366657220616d6f756e7420657863656564732062604482015265616c616e636560d01b6064820152608490fd5b600091338352600f60205260ff6040842054168015612622575b61261d576103e892506126109190156126145760095490611a14565b0490565b60085490611a14565b505090565b5032835260ff6040842054166125f4565b805115611a385760200190565b805160011015611a385760400190565b90816060910312611279578051916040602083015192015190565b9081602091031261127957518015158103611279579056fea26469706673582212200c8b6c73ffd8ba17dfa84185c3c2e05917ac032c19494c5574162ea072cacbd264736f6c634300081400332f8788117e7eff1d82e926ec794901d17c78024a50270940304540a733656f0d","opcodes":"PUSH1 0xA0 PUSH1 0x40 SWAP1 DUP1 DUP3 MSTORE CALLVALUE PUSH3 0x82C JUMPI PUSH3 0x32 SWAP1 PUSH3 0x2F82 DUP1 CODESIZE SUB DUP1 SWAP2 PUSH3 0x27 DUP3 DUP6 PUSH3 0x863 JUMP JUMPDEST DUP4 CODECOPY DUP2 ADD SWAP1 PUSH3 0x887 JUMP JUMPDEST DUP2 MLOAD SWAP1 PUSH3 0x40 DUP3 PUSH3 0x831 JUMP JUMPDEST PUSH1 0xA DUP3 MSTORE PUSH1 0x20 SWAP1 PUSH10 0x2D27A722902A37B5B2B7 PUSH1 0xB1 SHL DUP3 DUP5 ADD MSTORE DUP4 MLOAD SWAP1 PUSH3 0x67 DUP3 PUSH3 0x831 JUMP JUMPDEST PUSH1 0x4 DUP1 DUP4 MSTORE PUSH4 0x5A4F4E45 PUSH1 0xE0 SHL DUP5 DUP5 ADD MSTORE DUP5 MLOAD SWAP1 SWAP5 SWAP1 SWAP3 PUSH1 0x1 PUSH1 0x1 PUSH1 0x40 SHL SUB SWAP1 DUP2 DUP6 GT PUSH3 0x817 JUMPI PUSH1 0x3 SWAP1 DUP2 SLOAD SWAP6 PUSH1 0x1 SWAP5 DUP6 DUP9 DUP2 SHR SWAP9 AND DUP1 ISZERO PUSH3 0x80C JUMPI JUMPDEST DUP10 DUP10 LT EQ PUSH3 0x7F7 JUMPI DUP2 SWAP1 PUSH1 0x1F SWAP9 DUP10 DUP2 GT PUSH3 0x7A1 JUMPI JUMPDEST POP DUP10 SWAP1 DUP10 DUP4 GT PUSH1 0x1 EQ PUSH3 0x73A JUMPI PUSH1 0x0 SWAP3 PUSH3 0x72E JUMPI JUMPDEST POP POP PUSH1 0x0 NOT DUP3 DUP6 SHL SHR NOT AND SWAP1 DUP6 SHL OR DUP3 SSTORE JUMPDEST DUP1 MLOAD SWAP3 DUP4 GT PUSH3 0x719 JUMPI DUP8 SLOAD DUP5 DUP2 DUP2 SHR SWAP2 AND DUP1 ISZERO PUSH3 0x70E JUMPI JUMPDEST DUP9 DUP3 LT EQ PUSH3 0x6F9 JUMPI SWAP1 DUP2 DUP8 DUP6 SWAP5 SWAP4 GT PUSH3 0x6A1 JUMPI JUMPDEST POP DUP8 SWAP1 DUP8 DUP5 GT PUSH1 0x1 EQ PUSH3 0x636 JUMPI PUSH1 0x0 SWAP4 PUSH3 0x62A JUMPI JUMPDEST POP POP DUP3 DUP5 SHL SWAP3 PUSH1 0x0 NOT SWAP2 SHL SHR NOT AND OR DUP6 SSTORE JUMPDEST PUSH1 0xFF NOT SWAP2 DUP3 PUSH1 0x5 SLOAD AND PUSH1 0x5 SSTORE DUP2 PUSH1 0x7 SSTORE PUSH1 0x1E PUSH1 0x8 SSTORE PUSH1 0x1E PUSH1 0x9 SSTORE PUSH1 0xA DUP1 SSTORE PUSH1 0x14 PUSH1 0xB SSTORE PUSH9 0x3635C9ADC5DEA00000 PUSH1 0x11 SSTORE PUSH1 0x1 DUP1 PUSH1 0xA0 SHL SUB DUP1 SWAP2 AND SWAP1 DUP2 ISZERO PUSH3 0x5E9 JUMPI PUSH1 0x0 DUP1 MSTORE PUSH1 0x6 DUP7 MSTORE DUP8 PUSH1 0x0 KECCAK256 CALLER PUSH1 0x0 MSTORE DUP7 MSTORE PUSH1 0xFF DUP9 PUSH1 0x0 KECCAK256 SLOAD AND ISZERO PUSH3 0x5AE JUMPI JUMPDEST PUSH32 0x65D7A28E3265B37A6474929F336521B332C1681B933F6CB9F3376673440D862A DUP1 PUSH1 0x0 MSTORE PUSH1 0x6 DUP8 MSTORE DUP9 PUSH1 0x0 KECCAK256 CALLER PUSH1 0x0 MSTORE DUP8 MSTORE PUSH1 0xFF DUP10 PUSH1 0x0 KECCAK256 SLOAD AND ISZERO PUSH3 0x571 JUMPI JUMPDEST POP PUSH1 0xC DUP1 SLOAD PUSH1 0x1 PUSH1 0x1 PUSH1 0xA0 SHL SUB NOT SWAP1 DUP2 AND SWAP1 SWAP4 OR SWAP1 SSTORE PUSH20 0x10ED43C718714EB63D5AA57B78B54704E256024E PUSH1 0x80 DUP2 SWAP1 MSTORE DUP9 MLOAD PUSH4 0xC45A0155 PUSH1 0xE0 SHL DUP1 DUP3 MSTORE SWAP2 SWAP4 SWAP2 SWAP1 DUP9 DUP2 DUP12 DUP2 DUP9 GAS STATICCALL SWAP1 DUP2 ISZERO PUSH3 0x566 JUMPI PUSH1 0x0 SWAP2 PUSH3 0x544 JUMPI JUMPDEST POP DUP11 MLOAD PUSH4 0x15AB88C9 PUSH1 0xE3 SHL DUP2 MSTORE SWAP2 DUP12 DUP11 DUP5 DUP14 DUP2 DUP11 GAS STATICCALL DUP1 ISZERO PUSH3 0x539 JUMPI PUSH1 0x44 DUP13 SWAP3 DUP9 SWAP3 DUP16 SWAP8 DUP5 SWAP1 PUSH1 0x0 SWAP3 PUSH3 0x514 JUMPI JUMPDEST POP PUSH1 0x0 SWAP2 SWAP3 MLOAD SWAP8 DUP9 SWAP6 DUP7 SWAP5 PUSH4 0x64E329CB PUSH1 0xE1 SHL SWAP12 DUP13 DUP8 MSTORE ADDRESS SWAP1 DUP8 ADD MSTORE AND PUSH1 0x24 DUP6 ADD MSTORE AND GAS CALL SWAP2 DUP3 ISZERO PUSH3 0x509 JUMPI DUP11 SWAP3 DUP7 SWAP2 PUSH1 0x0 SWAP2 PUSH3 0x4E7 JUMPI JUMPDEST POP AND DUP5 PUSH1 0xD SLOAD AND OR PUSH1 0xD SSTORE DUP11 DUP13 MLOAD DUP1 SWAP8 DUP2 SWAP4 DUP3 MSTORE GAS STATICCALL SWAP4 DUP5 ISZERO PUSH3 0x4B8 JUMPI PUSH1 0x0 SWAP5 PUSH3 0x4C3 JUMPI JUMPDEST POP DUP10 MLOAD SWAP1 DUP2 MSTORE ADDRESS DUP10 DUP3 ADD MSTORE DUP8 DUP2 PUSH1 0x44 DUP2 PUSH1 0x0 DUP8 PUSH20 0x55D398326F99059FF775485246999027B3197955 SWAP10 DUP11 PUSH1 0x24 DUP6 ADD MSTORE AND GAS CALL DUP1 ISZERO PUSH3 0x4B8 JUMPI DUP4 SWAP2 PUSH1 0x0 SWAP2 PUSH3 0x484 JUMPI JUMPDEST POP AND SWAP1 PUSH1 0xE SLOAD AND OR PUSH1 0xE SSTORE ADDRESS PUSH1 0x0 MSTORE PUSH1 0xF DUP7 MSTORE DUP8 PUSH1 0x0 KECCAK256 DUP4 DUP6 DUP3 SLOAD AND OR SWAP1 SSTORE CALLER PUSH1 0x0 MSTORE DUP8 PUSH1 0x0 KECCAK256 DUP4 DUP6 DUP3 SLOAD AND OR SWAP1 SSTORE PUSH1 0xC SLOAD AND PUSH1 0x0 MSTORE DUP7 PUSH1 0x0 KECCAK256 DUP3 DUP5 DUP3 SLOAD AND OR SWAP1 SSTORE PUSH1 0x0 MSTORE DUP6 PUSH1 0x0 KECCAK256 SWAP2 DUP3 SLOAD AND OR SWAP1 SSTORE CALLER ISZERO PUSH3 0x445 JUMPI POP PUSH1 0x2 SLOAD PUSH11 0x52B7D2DCC80CD2E4000000 SWAP3 DUP4 DUP3 ADD DUP1 SWAP3 GT PUSH3 0x430 JUMPI POP PUSH1 0x0 SWAP2 PUSH32 0xDDF252AD1BE2C89B69C2B068FC378DAA952BA7F163C4A11628F55A4DF523B3EF SWAP2 PUSH1 0x2 SSTORE CALLER DUP4 MSTORE DUP3 DUP2 MSTORE DUP5 DUP4 KECCAK256 DUP5 DUP2 SLOAD ADD SWAP1 SSTORE DUP5 MLOAD SWAP4 DUP5 MSTORE CALLER SWAP4 LOG3 MLOAD PUSH2 0x26B9 SWAP1 DUP2 PUSH3 0x8A9 DUP3 CODECOPY PUSH1 0x80 MLOAD DUP2 DUP2 DUP2 PUSH2 0x1054 ADD MSTORE DUP2 DUP2 PUSH2 0x1D8B ADD MSTORE DUP2 DUP2 PUSH2 0x1DE8 ADD MSTORE DUP2 DUP2 PUSH2 0x1E10 ADD MSTORE DUP2 DUP2 PUSH2 0x1E9C ADD MSTORE DUP2 DUP2 PUSH2 0x1F27 ADD MSTORE DUP2 DUP2 PUSH2 0x1F57 ADD MSTORE DUP2 DUP2 PUSH2 0x1FE3 ADD MSTORE DUP2 DUP2 PUSH2 0x2080 ADD MSTORE DUP2 DUP2 PUSH2 0x20C5 ADD MSTORE DUP2 DUP2 PUSH2 0x217F ADD MSTORE DUP2 DUP2 PUSH2 0x2291 ADD MSTORE PUSH2 0x2300 ADD MSTORE RETURN JUMPDEST PUSH1 0x11 SWAP1 PUSH4 0x4E487B71 PUSH1 0xE0 SHL PUSH1 0x0 MSTORE MSTORE PUSH1 0x24 PUSH1 0x0 REVERT JUMPDEST SWAP1 PUSH1 0x64 SWAP4 MLOAD SWAP3 PUSH3 0x461BCD PUSH1 0xE5 SHL DUP5 MSTORE DUP4 ADD MSTORE PUSH1 0x24 DUP3 ADD MSTORE PUSH32 0x45524332303A206D696E7420746F20746865207A65726F206164647265737300 PUSH1 0x44 DUP3 ADD MSTORE REVERT JUMPDEST PUSH3 0x4A9 SWAP2 POP DUP10 RETURNDATASIZE DUP12 GT PUSH3 0x4B0 JUMPI JUMPDEST PUSH3 0x4A0 DUP2 DUP4 PUSH3 0x863 JUMP JUMPDEST DUP2 ADD SWAP1 PUSH3 0x887 JUMP JUMPDEST CODESIZE PUSH3 0x312 JUMP JUMPDEST POP RETURNDATASIZE PUSH3 0x494 JUMP JUMPDEST DUP11 MLOAD RETURNDATASIZE PUSH1 0x0 DUP3 RETURNDATACOPY RETURNDATASIZE SWAP1 REVERT JUMPDEST PUSH3 0x4DF SWAP2 SWAP5 POP DUP9 RETURNDATASIZE DUP11 GT PUSH3 0x4B0 JUMPI PUSH3 0x4A0 DUP2 DUP4 PUSH3 0x863 JUMP JUMPDEST SWAP3 CODESIZE PUSH3 0x2CE JUMP JUMPDEST PUSH3 0x502 SWAP2 POP DUP5 RETURNDATASIZE DUP7 GT PUSH3 0x4B0 JUMPI PUSH3 0x4A0 DUP2 DUP4 PUSH3 0x863 JUMP JUMPDEST CODESIZE PUSH3 0x2A7 JUMP JUMPDEST DUP13 MLOAD RETURNDATASIZE PUSH1 0x0 DUP3 RETURNDATACOPY RETURNDATASIZE SWAP1 REVERT JUMPDEST PUSH1 0x0 SWAP3 POP PUSH3 0x532 SWAP1 DUP8 RETURNDATASIZE DUP10 GT PUSH3 0x4B0 JUMPI PUSH3 0x4A0 DUP2 DUP4 PUSH3 0x863 JUMP JUMPDEST SWAP2 PUSH3 0x26D JUMP JUMPDEST POP MLOAD RETURNDATASIZE PUSH1 0x0 DUP3 RETURNDATACOPY RETURNDATASIZE SWAP1 REVERT JUMPDEST PUSH3 0x55F SWAP2 POP DUP10 RETURNDATASIZE DUP12 GT PUSH3 0x4B0 JUMPI PUSH3 0x4A0 DUP2 DUP4 PUSH3 0x863 JUMP JUMPDEST CODESIZE PUSH3 0x23D JUMP JUMPDEST DUP12 MLOAD RETURNDATASIZE PUSH1 0x0 DUP3 RETURNDATACOPY RETURNDATASIZE SWAP1 REVERT JUMPDEST DUP1 PUSH1 0x0 MSTORE PUSH1 0x6 DUP8 MSTORE DUP9 PUSH1 0x0 KECCAK256 CALLER PUSH1 0x0 MSTORE DUP8 MSTORE DUP9 PUSH1 0x0 KECCAK256 DUP5 DUP7 DUP3 SLOAD AND OR SWAP1 SSTORE CALLER SWAP1 CALLER SWAP1 PUSH1 0x0 DUP1 MLOAD PUSH1 0x20 PUSH3 0x2F62 DUP4 CODECOPY DUP2 MLOAD SWAP2 MSTORE PUSH1 0x0 DUP1 LOG4 CODESIZE PUSH3 0x1E4 JUMP JUMPDEST PUSH1 0x0 DUP1 MSTORE PUSH1 0x6 DUP7 MSTORE DUP8 PUSH1 0x0 KECCAK256 CALLER PUSH1 0x0 MSTORE DUP7 MSTORE DUP8 PUSH1 0x0 KECCAK256 DUP4 DUP6 DUP3 SLOAD AND OR SWAP1 SSTORE CALLER CALLER PUSH1 0x0 PUSH1 0x0 DUP1 MLOAD PUSH1 0x20 PUSH3 0x2F62 DUP4 CODECOPY DUP2 MLOAD SWAP2 MSTORE DUP2 DUP1 LOG4 PUSH3 0x1A2 JUMP JUMPDEST PUSH1 0x64 DUP8 DUP7 DUP9 DUP12 MLOAD SWAP3 PUSH3 0x461BCD PUSH1 0xE5 SHL DUP5 MSTORE DUP4 ADD MSTORE PUSH1 0x24 DUP3 ADD MSTORE PUSH32 0x4D61726B6574696E672077616C6C65742063616E6E6F74206265207A65726F00 PUSH1 0x44 DUP3 ADD MSTORE REVERT JUMPDEST ADD MLOAD SWAP2 POP CODESIZE DUP1 PUSH3 0x12D JUMP JUMPDEST SWAP2 SWAP1 DUP6 SWAP5 POP PUSH1 0x1F NOT DUP5 AND SWAP3 DUP11 PUSH1 0x0 MSTORE DUP10 PUSH1 0x0 KECCAK256 SWAP4 PUSH1 0x0 JUMPDEST DUP12 DUP3 DUP3 LT PUSH3 0x68A JUMPI POP POP DUP6 GT PUSH3 0x66F JUMPI JUMPDEST POP POP POP POP DUP2 SHL ADD DUP6 SSTORE PUSH3 0x13F JUMP JUMPDEST ADD MLOAD SWAP1 PUSH1 0xF8 DUP5 PUSH1 0x0 NOT SWAP3 SHL AND SHR NOT AND SWAP1 SSTORE CODESIZE DUP1 DUP1 DUP1 PUSH3 0x660 JUMP JUMPDEST DUP4 DUP6 ADD MLOAD DUP8 SSTORE DUP10 SWAP9 SWAP1 SWAP7 ADD SWAP6 SWAP4 DUP5 ADD SWAP4 ADD PUSH3 0x64D JUMP JUMPDEST SWAP1 SWAP2 SWAP3 POP DUP9 PUSH1 0x0 MSTORE DUP8 PUSH1 0x0 KECCAK256 DUP8 DUP1 DUP7 ADD PUSH1 0x5 SHR DUP3 ADD SWAP3 DUP11 DUP8 LT PUSH3 0x6EF JUMPI JUMPDEST SWAP2 DUP8 SWAP2 DUP8 SWAP7 SWAP6 SWAP5 SWAP4 ADD PUSH1 0x5 SHR ADD SWAP2 JUMPDEST DUP3 DUP2 LT PUSH3 0x6DF JUMPI POP POP PUSH3 0x116 JUMP JUMPDEST PUSH1 0x0 DUP2 SSTORE DUP7 SWAP6 POP DUP8 SWAP2 ADD PUSH3 0x6CF JUMP JUMPDEST SWAP3 POP DUP2 SWAP3 PUSH3 0x6C0 JUMP JUMPDEST PUSH1 0x22 DUP10 PUSH4 0x4E487B71 PUSH1 0xE0 SHL PUSH1 0x0 MSTORE MSTORE PUSH1 0x24 PUSH1 0x0 REVERT JUMPDEST SWAP1 PUSH1 0x7F AND SWAP1 PUSH3 0x100 JUMP JUMPDEST PUSH1 0x41 DUP9 PUSH4 0x4E487B71 PUSH1 0xE0 SHL PUSH1 0x0 MSTORE MSTORE PUSH1 0x24 PUSH1 0x0 REVERT JUMPDEST ADD MLOAD SWAP1 POP CODESIZE DUP1 PUSH3 0xD4 JUMP JUMPDEST SWAP1 DUP8 SWAP4 POP PUSH1 0x1F NOT DUP4 AND SWAP2 DUP7 PUSH1 0x0 MSTORE DUP12 PUSH1 0x0 KECCAK256 SWAP3 PUSH1 0x0 JUMPDEST DUP14 DUP3 DUP3 LT PUSH3 0x78A JUMPI POP POP DUP5 GT PUSH3 0x771 JUMPI JUMPDEST POP POP POP DUP2 SHL ADD DUP3 SSTORE PUSH3 0xE6 JUMP JUMPDEST ADD MLOAD PUSH1 0x0 NOT DUP4 DUP8 SHL PUSH1 0xF8 AND SHR NOT AND SWAP1 SSTORE CODESIZE DUP1 DUP1 PUSH3 0x763 JUMP JUMPDEST DUP4 DUP6 ADD MLOAD DUP7 SSTORE DUP12 SWAP8 SWAP1 SWAP6 ADD SWAP5 SWAP4 DUP5 ADD SWAP4 ADD PUSH3 0x750 JUMP JUMPDEST SWAP1 SWAP2 POP DUP5 PUSH1 0x0 MSTORE DUP10 PUSH1 0x0 KECCAK256 DUP10 DUP1 DUP6 ADD PUSH1 0x5 SHR DUP3 ADD SWAP3 DUP13 DUP7 LT PUSH3 0x7ED JUMPI JUMPDEST SWAP2 DUP10 SWAP2 DUP7 SWAP6 SWAP5 SWAP4 ADD PUSH1 0x5 SHR ADD SWAP2 JUMPDEST DUP3 DUP2 LT PUSH3 0x7DD JUMPI POP POP PUSH3 0xBD JUMP JUMPDEST PUSH1 0x0 DUP2 SSTORE DUP6 SWAP5 POP DUP10 SWAP2 ADD PUSH3 0x7CD JUMP JUMPDEST SWAP3 POP DUP2 SWAP3 PUSH3 0x7BF JUMP JUMPDEST PUSH1 0x22 DUP11 PUSH4 0x4E487B71 PUSH1 0xE0 SHL PUSH1 0x0 MSTORE MSTORE PUSH1 0x24 PUSH1 0x0 REVERT JUMPDEST SWAP8 PUSH1 0x7F AND SWAP8 PUSH3 0xA6 JUMP JUMPDEST PUSH1 0x41 DUP8 PUSH4 0x4E487B71 PUSH1 0xE0 SHL PUSH1 0x0 MSTORE MSTORE PUSH1 0x24 PUSH1 0x0 REVERT JUMPDEST PUSH1 0x0 DUP1 REVERT JUMPDEST PUSH1 0x40 DUP2 ADD SWAP1 DUP2 LT PUSH1 0x1 PUSH1 0x1 PUSH1 0x40 SHL SUB DUP3 GT OR PUSH3 0x84D JUMPI PUSH1 0x40 MSTORE JUMP JUMPDEST PUSH4 0x4E487B71 PUSH1 0xE0 SHL PUSH1 0x0 MSTORE PUSH1 0x41 PUSH1 0x4 MSTORE PUSH1 0x24 PUSH1 0x0 REVERT JUMPDEST PUSH1 0x1F SWAP1 SWAP2 ADD PUSH1 0x1F NOT AND DUP2 ADD SWAP1 PUSH1 0x1 PUSH1 0x1 PUSH1 0x40 SHL SUB DUP3 GT SWAP1 DUP3 LT OR PUSH3 0x84D JUMPI PUSH1 0x40 MSTORE JUMP JUMPDEST SWAP1 DUP2 PUSH1 0x20 SWAP2 SUB SLT PUSH3 0x82C JUMPI MLOAD PUSH1 0x1 PUSH1 0x1 PUSH1 0xA0 SHL SUB DUP2 AND DUP2 SUB PUSH3 0x82C JUMPI SWAP1 JUMP INVALID PUSH1 0x80 PUSH1 0x40 DUP2 DUP2 MSTORE PUSH1 0x4 SWAP2 DUP3 CALLDATASIZE LT ISZERO PUSH2 0x22 JUMPI JUMPDEST POP POP POP CALLDATASIZE ISZERO PUSH2 0x20 JUMPI PUSH1 0x0 DUP1 REVERT JUMPDEST STOP JUMPDEST PUSH1 0x0 SWAP3 DUP4 CALLDATALOAD PUSH1 0xE0 SHR SWAP2 DUP3 PUSH4 0x1FFC9A7 EQ PUSH2 0x11C1 JUMPI POP DUP2 PUSH4 0x6FDDE03 EQ PUSH2 0x10CC JUMPI DUP2 PUSH4 0x9218EE7 EQ PUSH2 0x10AD JUMPI DUP2 PUSH4 0x95EA7B3 EQ PUSH2 0x1083 JUMPI DUP2 PUSH4 0x1694505E EQ PUSH2 0x103F JUMPI DUP2 PUSH4 0x18160DDD EQ PUSH2 0x1020 JUMPI DUP2 PUSH4 0x23B872DD EQ PUSH2 0xF62 JUMPI DUP2 PUSH4 0x248A9CA3 EQ PUSH2 0xF37 JUMPI DUP2 PUSH4 0x2ACA3E7D EQ PUSH2 0xEC4 JUMPI DUP2 PUSH4 0x2F2FF15D EQ PUSH2 0xE17 JUMPI DUP2 PUSH4 0x2F3DD45A EQ PUSH2 0xDEE JUMPI DUP2 PUSH4 0x2FF2E9DC EQ PUSH2 0xDC8 JUMPI DUP2 PUSH4 0x313CE567 EQ PUSH2 0xDAC JUMPI DUP2 PUSH4 0x36568ABE EQ PUSH2 0xD1A JUMPI DUP2 PUSH4 0x39509351 EQ PUSH2 0xCCA JUMPI DUP2 PUSH4 0x3F4BA83A EQ PUSH2 0xC34 JUMPI DUP2 PUSH4 0x42966C68 EQ PUSH2 0xC16 JUMPI DUP2 PUSH4 0x48A46473 EQ PUSH2 0xBF4 JUMPI DUP2 PUSH4 0x4F7041A5 EQ PUSH2 0xBD5 JUMPI DUP2 PUSH4 0x5342ACB4 EQ PUSH2 0xB97 JUMPI DUP2 PUSH4 0x5C975ABB EQ PUSH2 0xB73 JUMPI DUP2 PUSH4 0x5D098B38 EQ PUSH2 0xAE0 JUMPI DUP2 PUSH4 0x6FF1C9BC EQ PUSH2 0x94C JUMPI DUP2 PUSH4 0x70A08231 EQ PUSH2 0x915 JUMPI DUP2 PUSH4 0x75F0A874 EQ PUSH2 0x8EC JUMPI DUP2 PUSH4 0x79CC6790 EQ PUSH2 0x834 JUMPI DUP2 PUSH4 0x84536017 EQ PUSH2 0x741 JUMPI DUP2 PUSH4 0x8456CB59 EQ PUSH2 0x6AD JUMPI DUP2 PUSH4 0x91D14854 EQ PUSH2 0x666 JUMPI DUP2 PUSH4 0x95D89B41 EQ PUSH2 0x563 JUMPI DUP2 PUSH4 0x96430EC4 EQ PUSH2 0x53A JUMPI DUP2 PUSH4 0xA217FDDF EQ PUSH2 0x51F JUMPI DUP2 PUSH4 0xA457C2D7 EQ PUSH2 0x477 JUMPI DUP2 PUSH4 0xA51C9ACE EQ PUSH2 0x45A JUMPI DUP2 PUSH4 0xA9059CBB EQ PUSH2 0x429 JUMPI DUP2 PUSH4 0xB23BED45 EQ PUSH2 0x40A JUMPI DUP2 PUSH4 0xC647B20E EQ PUSH2 0x365 JUMPI DUP2 PUSH4 0xCC1776D3 EQ PUSH2 0x346 JUMPI DUP2 PUSH4 0xD547741F EQ PUSH2 0x303 JUMPI POP DUP1 PUSH4 0xDD62ED3E EQ PUSH2 0x2BB JUMPI DUP1 PUSH4 0xDF8408FE EQ PUSH2 0x266 JUMPI DUP1 PUSH4 0xE5D41C6B EQ PUSH2 0x248 JUMPI PUSH4 0xE63AB1E9 EQ PUSH2 0x20B JUMPI DUP1 PUSH2 0x12 JUMP JUMPDEST CALLVALUE PUSH2 0x244 JUMPI DUP2 PUSH1 0x3 NOT CALLDATASIZE ADD SLT PUSH2 0x244 JUMPI PUSH1 0x20 SWAP1 MLOAD PUSH32 0x65D7A28E3265B37A6474929F336521B332C1681B933F6CB9F3376673440D862A DUP2 MSTORE RETURN JUMPDEST POP DUP1 REVERT JUMPDEST POP CALLVALUE PUSH2 0x244 JUMPI DUP2 PUSH1 0x3 NOT CALLDATASIZE ADD SLT PUSH2 0x244 JUMPI PUSH1 0x20 SWAP1 PUSH1 0x11 SLOAD SWAP1 MLOAD SWAP1 DUP2 MSTORE RETURN JUMPDEST POP CALLVALUE PUSH2 0x244 JUMPI DUP1 PUSH1 0x3 NOT CALLDATASIZE ADD SLT PUSH2 0x244 JUMPI PUSH2 0x27F PUSH2 0x1263 JUMP JUMPDEST SWAP1 PUSH1 0x24 CALLDATALOAD SWAP2 DUP3 ISZERO ISZERO DUP1 SWAP4 SUB PUSH2 0x2B7 JUMPI PUSH2 0x296 PUSH2 0x12AA JUMP JUMPDEST PUSH1 0x1 DUP1 PUSH1 0xA0 SHL SUB AND DUP4 MSTORE PUSH1 0xF PUSH1 0x20 MSTORE DUP3 KECCAK256 SWAP1 PUSH1 0xFF DUP1 NOT DUP4 SLOAD AND SWAP2 AND OR SWAP1 SSTORE DUP1 RETURN JUMPDEST DUP4 DUP1 REVERT JUMPDEST POP CALLVALUE PUSH2 0x244 JUMPI DUP1 PUSH1 0x3 NOT CALLDATASIZE ADD SLT PUSH2 0x244 JUMPI DUP1 PUSH1 0x20 SWAP3 PUSH2 0x2D8 PUSH2 0x1263 JUMP JUMPDEST PUSH2 0x2E0 PUSH2 0x127E JUMP JUMPDEST PUSH1 0x1 PUSH1 0x1 PUSH1 0xA0 SHL SUB SWAP2 DUP3 AND DUP4 MSTORE PUSH1 0x1 DUP7 MSTORE DUP4 DUP4 KECCAK256 SWAP2 AND DUP3 MSTORE DUP5 MSTORE KECCAK256 SLOAD SWAP1 MLOAD SWAP1 DUP2 MSTORE RETURN JUMPDEST SWAP2 SWAP1 POP CALLVALUE PUSH2 0x342 JUMPI DUP1 PUSH1 0x3 NOT CALLDATASIZE ADD SLT PUSH2 0x342 JUMPI PUSH2 0x33F SWAP2 CALLDATALOAD PUSH2 0x33A PUSH1 0x1 PUSH2 0x328 PUSH2 0x127E JUMP JUMPDEST SWAP4 DUP4 DUP8 MSTORE PUSH1 0x6 PUSH1 0x20 MSTORE DUP7 KECCAK256 ADD SLOAD PUSH2 0x15E4 JUMP JUMPDEST PUSH2 0x1772 JUMP JUMPDEST DUP1 RETURN JUMPDEST DUP3 DUP1 REVERT JUMPDEST POP POP CALLVALUE PUSH2 0x244 JUMPI DUP2 PUSH1 0x3 NOT CALLDATASIZE ADD SLT PUSH2 0x244 JUMPI PUSH1 0x20 SWAP1 PUSH1 0x9 SLOAD SWAP1 MLOAD SWAP1 DUP2 MSTORE RETURN JUMPDEST SWAP2 SWAP1 POP CALLVALUE PUSH2 0x342 JUMPI PUSH2 0x376 CALLDATASIZE PUSH2 0x1294 JUMP JUMPDEST SWAP3 SWAP1 SWAP2 PUSH2 0x381 PUSH2 0x12AA JUMP JUMPDEST PUSH1 0x64 DUP4 GT PUSH2 0x3D4 JUMPI PUSH2 0x1EA DUP5 GT PUSH2 0x39D JUMPI POP POP PUSH1 0x8 SSTORE PUSH1 0x9 SSTORE DUP1 RETURN JUMPDEST SWAP1 PUSH1 0x20 PUSH1 0x64 SWAP3 MLOAD SWAP2 PUSH3 0x461BCD PUSH1 0xE5 SHL DUP4 MSTORE DUP3 ADD MSTORE PUSH1 0x11 PUSH1 0x24 DUP3 ADD MSTORE PUSH17 0xA6CAD8D840E8C2F040E8DEDE40D0D2CED PUSH1 0x7B SHL PUSH1 0x44 DUP3 ADD MSTORE REVERT JUMPDEST SWAP1 PUSH1 0x20 PUSH1 0x64 SWAP3 MLOAD SWAP2 PUSH3 0x461BCD PUSH1 0xE5 SHL DUP4 MSTORE DUP3 ADD MSTORE PUSH1 0x10 PUSH1 0x24 DUP3 ADD MSTORE PUSH16 0x84EAF240E8C2F040E8DEDE40D0D2CED PUSH1 0x83 SHL PUSH1 0x44 DUP3 ADD MSTORE REVERT JUMPDEST POP POP CALLVALUE PUSH2 0x244 JUMPI DUP2 PUSH1 0x3 NOT CALLDATASIZE ADD SLT PUSH2 0x244 JUMPI PUSH1 0x20 SWAP1 PUSH1 0xA SLOAD SWAP1 MLOAD SWAP1 DUP2 MSTORE RETURN JUMPDEST POP POP CALLVALUE PUSH2 0x244 JUMPI DUP1 PUSH1 0x3 NOT CALLDATASIZE ADD SLT PUSH2 0x244 JUMPI PUSH1 0x20 SWAP1 PUSH2 0x453 PUSH2 0x449 PUSH2 0x1263 JUMP JUMPDEST PUSH1 0x24 CALLDATALOAD SWAP1 CALLER PUSH2 0x1C0B JUMP JUMPDEST MLOAD PUSH1 0x1 DUP2 MSTORE RETURN JUMPDEST POP POP CALLVALUE PUSH2 0x244 JUMPI DUP2 PUSH1 0x3 NOT CALLDATASIZE ADD SLT PUSH2 0x244 JUMPI PUSH1 0x20 SWAP1 MLOAD PUSH2 0x3E8 DUP2 MSTORE RETURN JUMPDEST SWAP1 POP DUP3 CALLVALUE PUSH2 0x51C JUMPI DUP3 PUSH1 0x3 NOT CALLDATASIZE ADD SLT PUSH2 0x51C JUMPI PUSH2 0x492 PUSH2 0x1263 JUMP JUMPDEST SWAP2 DUP4 PUSH1 0x24 CALLDATALOAD SWAP3 CALLER DUP2 MSTORE PUSH1 0x1 PUSH1 0x20 MSTORE DUP2 DUP2 KECCAK256 PUSH1 0x1 DUP1 PUSH1 0xA0 SHL SUB DUP7 AND DUP3 MSTORE PUSH1 0x20 MSTORE KECCAK256 SLOAD SWAP1 DUP3 DUP3 LT PUSH2 0x4CB JUMPI PUSH1 0x20 DUP6 PUSH2 0x453 DUP6 DUP6 SUB DUP8 CALLER PUSH2 0x180B JUMP JUMPDEST PUSH1 0x84 SWAP1 PUSH1 0x20 DUP7 MLOAD SWAP2 PUSH3 0x461BCD PUSH1 0xE5 SHL DUP4 MSTORE DUP3 ADD MSTORE PUSH1 0x25 PUSH1 0x24 DUP3 ADD MSTORE PUSH32 0x45524332303A2064656372656173656420616C6C6F77616E63652062656C6F77 PUSH1 0x44 DUP3 ADD MSTORE PUSH5 0x207A65726F PUSH1 0xD8 SHL PUSH1 0x64 DUP3 ADD MSTORE REVERT JUMPDEST DUP1 REVERT JUMPDEST POP POP CALLVALUE PUSH2 0x244 JUMPI DUP2 PUSH1 0x3 NOT CALLDATASIZE ADD SLT PUSH2 0x244 JUMPI MLOAD SWAP1 DUP2 MSTORE PUSH1 0x20 SWAP1 RETURN JUMPDEST POP POP CALLVALUE PUSH2 0x244 JUMPI DUP2 PUSH1 0x3 NOT CALLDATASIZE ADD SLT PUSH2 0x244 JUMPI PUSH1 0xE SLOAD SWAP1 MLOAD PUSH1 0x1 PUSH1 0x1 PUSH1 0xA0 SHL SUB SWAP1 SWAP2 AND DUP2 MSTORE PUSH1 0x20 SWAP1 RETURN JUMPDEST DUP4 DUP4 CALLVALUE PUSH2 0x244 JUMPI DUP2 PUSH1 0x3 NOT CALLDATASIZE ADD SLT PUSH2 0x244 JUMPI DUP1 MLOAD SWAP2 DUP1 SWAP4 DUP1 SLOAD SWAP2 PUSH1 0x1 SWAP1 DUP4 DUP3 SHR SWAP3 DUP3 DUP6 AND SWAP5 DUP6 ISZERO PUSH2 0x65C JUMPI JUMPDEST PUSH1 0x20 SWAP6 DUP7 DUP7 LT DUP2 EQ PUSH2 0x649 JUMPI DUP6 DUP10 MSTORE SWAP1 DUP2 ISZERO PUSH2 0x625 JUMPI POP PUSH1 0x1 EQ PUSH2 0x5CD JUMPI JUMPDEST PUSH2 0x5C9 DUP8 DUP8 PUSH2 0x5BF DUP3 DUP13 SUB DUP4 PUSH2 0x1750 JUMP JUMPDEST MLOAD SWAP2 DUP3 SWAP2 DUP3 PUSH2 0x1237 JUMP JUMPDEST SUB SWAP1 RETURN JUMPDEST DUP2 MSTORE SWAP3 SWAP6 POP PUSH32 0x8A35ACFBC15FF81A39AE7D344FD709F28E8600B4AA8C65C6B64BFE7FE36BD19B JUMPDEST DUP3 DUP5 LT PUSH2 0x612 JUMPI POP POP POP DUP3 PUSH2 0x5C9 SWAP5 PUSH2 0x5BF SWAP3 DUP3 ADD ADD SWAP5 DUP7 DUP1 PUSH2 0x5AE JUMP JUMPDEST DUP1 SLOAD DUP7 DUP6 ADD DUP9 ADD MSTORE SWAP3 DUP7 ADD SWAP3 DUP2 ADD PUSH2 0x5F4 JUMP JUMPDEST PUSH1 0xFF NOT AND DUP9 DUP8 ADD MSTORE POP POP POP POP ISZERO ISZERO PUSH1 0x5 SHL DUP4 ADD ADD SWAP3 POP PUSH2 0x5BF DUP3 PUSH2 0x5C9 DUP7 DUP1 PUSH2 0x5AE JUMP JUMPDEST PUSH4 0x4E487B71 PUSH1 0xE0 SHL DUP5 MSTORE PUSH1 0x22 DUP4 MSTORE PUSH1 0x24 DUP5 REVERT JUMPDEST SWAP4 PUSH1 0x7F AND SWAP4 PUSH2 0x58F JUMP JUMPDEST SWAP1 POP CALLVALUE PUSH2 0x342 JUMPI DUP2 PUSH1 0x3 NOT CALLDATASIZE ADD SLT PUSH2 0x342 JUMPI DUP2 PUSH1 0x20 SWAP4 PUSH1 0xFF SWAP3 PUSH2 0x687 PUSH2 0x127E JUMP JUMPDEST SWAP1 CALLDATALOAD DUP3 MSTORE PUSH1 0x6 DUP7 MSTORE DUP3 DUP3 KECCAK256 PUSH1 0x1 PUSH1 0x1 PUSH1 0xA0 SHL SUB SWAP1 SWAP2 AND DUP3 MSTORE DUP6 MSTORE KECCAK256 SLOAD SWAP2 MLOAD SWAP2 AND ISZERO ISZERO DUP2 MSTORE RETURN JUMPDEST SWAP1 POP CALLVALUE PUSH2 0x342 JUMPI DUP3 PUSH1 0x3 NOT CALLDATASIZE ADD SLT PUSH2 0x342 JUMPI PUSH2 0x6C7 PUSH2 0x149E JUMP JUMPDEST PUSH1 0x5 SLOAD SWAP1 PUSH1 0xFF DUP3 AND PUSH2 0x70B JUMPI POP PUSH1 0xFF NOT AND PUSH1 0x1 OR PUSH1 0x5 SSTORE MLOAD CALLER DUP2 MSTORE PUSH32 0x62E78CEA01BEE320CD4E420270B5EA74000D11B0C9F74754EBDBFC544B05A258 SWAP1 PUSH1 0x20 SWAP1 LOG1 DUP1 RETURN JUMPDEST PUSH1 0x64 SWAP1 PUSH1 0x20 DUP5 MLOAD SWAP2 PUSH3 0x461BCD PUSH1 0xE5 SHL DUP4 MSTORE DUP3 ADD MSTORE PUSH1 0x10 PUSH1 0x24 DUP3 ADD MSTORE PUSH16 0x14185D5CD8589B194E881C185D5CD959 PUSH1 0x82 SHL PUSH1 0x44 DUP3 ADD MSTORE REVERT JUMPDEST SWAP2 SWAP1 POP CALLVALUE PUSH2 0x342 JUMPI DUP3 PUSH1 0x3 NOT CALLDATASIZE ADD SLT PUSH2 0x342 JUMPI PUSH2 0x75C PUSH2 0x12AA JUMP JUMPDEST SELFBALANCE DUP1 ISZERO PUSH2 0x7FC JUMPI DUP4 DUP1 DUP1 DUP1 SWAP4 CALLER GAS CALL RETURNDATASIZE ISZERO PUSH2 0x7F7 JUMPI RETURNDATASIZE PUSH8 0xFFFFFFFFFFFFFFFF DUP2 GT PUSH2 0x7E4 JUMPI DUP3 MLOAD SWAP1 PUSH2 0x798 PUSH1 0x1F DUP3 ADD PUSH1 0x1F NOT AND PUSH1 0x20 ADD DUP4 PUSH2 0x1750 JUMP JUMPDEST DUP2 MSTORE DUP5 PUSH1 0x20 RETURNDATASIZE SWAP3 ADD RETURNDATACOPY JUMPDEST ISZERO PUSH2 0x7AB JUMPI DUP3 DUP1 RETURN JUMPDEST SWAP1 PUSH1 0x20 PUSH1 0x64 SWAP3 MLOAD SWAP2 PUSH3 0x461BCD PUSH1 0xE5 SHL DUP4 MSTORE DUP3 ADD MSTORE PUSH1 0x13 PUSH1 0x24 DUP3 ADD MSTORE PUSH19 0x109390881DDA5D1A191C985DC819985A5B1959 PUSH1 0x6A SHL PUSH1 0x44 DUP3 ADD MSTORE REVERT JUMPDEST PUSH4 0x4E487B71 PUSH1 0xE0 SHL DUP6 MSTORE PUSH1 0x41 DUP5 MSTORE PUSH1 0x24 DUP6 REVERT JUMPDEST PUSH2 0x7A2 JUMP JUMPDEST DUP2 MLOAD PUSH3 0x461BCD PUSH1 0xE5 SHL DUP2 MSTORE PUSH1 0x20 DUP2 DUP6 ADD MSTORE PUSH1 0x12 PUSH1 0x24 DUP3 ADD MSTORE PUSH18 0x4E6F20424E4220746F207769746864726177 PUSH1 0x70 SHL PUSH1 0x44 DUP3 ADD MSTORE PUSH1 0x64 SWAP1 REVERT JUMPDEST DUP4 SWAP2 POP CALLVALUE PUSH2 0x244 JUMPI DUP3 PUSH1 0x3 NOT CALLDATASIZE ADD SLT PUSH2 0x244 JUMPI PUSH2 0x84F PUSH2 0x1263 JUMP JUMPDEST PUSH1 0x1 PUSH1 0x1 PUSH1 0xA0 SHL SUB DUP2 AND DUP4 MSTORE PUSH1 0x1 PUSH1 0x20 DUP2 DUP2 MSTORE DUP6 DUP6 KECCAK256 CALLER DUP7 MSTORE SWAP1 MSTORE DUP5 DUP5 KECCAK256 SLOAD PUSH1 0x24 CALLDATALOAD SWAP4 SWAP1 SWAP2 DUP3 ADD PUSH2 0x886 JUMPI JUMPDEST DUP5 PUSH2 0x33F DUP6 DUP6 PUSH2 0x190D JUMP JUMPDEST DUP4 DUP3 LT PUSH2 0x8A9 JUMPI POP PUSH2 0x33F SWAP4 SWAP5 POP DUP3 PUSH2 0x8A1 SWAP2 SUB CALLER DUP4 PUSH2 0x180B JUMP JUMPDEST DUP4 SWAP3 DUP6 PUSH2 0x87B JUMP JUMPDEST PUSH1 0x64 SWAP1 PUSH1 0x20 DUP8 MLOAD SWAP2 PUSH3 0x461BCD PUSH1 0xE5 SHL DUP4 MSTORE DUP3 ADD MSTORE PUSH1 0x1D PUSH1 0x24 DUP3 ADD MSTORE PUSH32 0x45524332303A20696E73756666696369656E7420616C6C6F77616E6365000000 PUSH1 0x44 DUP3 ADD MSTORE REVERT JUMPDEST POP POP CALLVALUE PUSH2 0x244 JUMPI DUP2 PUSH1 0x3 NOT CALLDATASIZE ADD SLT PUSH2 0x244 JUMPI PUSH1 0xC SLOAD SWAP1 MLOAD PUSH1 0x1 PUSH1 0x1 PUSH1 0xA0 SHL SUB SWAP1 SWAP2 AND DUP2 MSTORE PUSH1 0x20 SWAP1 RETURN JUMPDEST POP POP CALLVALUE PUSH2 0x244 JUMPI PUSH1 0x20 CALLDATASIZE PUSH1 0x3 NOT ADD SLT PUSH2 0x244 JUMPI PUSH1 0x20 SWAP2 DUP2 SWAP1 PUSH1 0x1 PUSH1 0x1 PUSH1 0xA0 SHL SUB PUSH2 0x93D PUSH2 0x1263 JUMP JUMPDEST AND DUP2 MSTORE DUP1 DUP5 MSTORE KECCAK256 SLOAD SWAP1 MLOAD SWAP1 DUP2 MSTORE RETURN JUMPDEST DUP4 DUP4 CALLVALUE PUSH2 0x244 JUMPI PUSH1 0x20 SWAP1 DUP2 PUSH1 0x3 NOT CALLDATASIZE ADD SLT PUSH2 0x342 JUMPI DUP4 CALLDATALOAD PUSH1 0x1 PUSH1 0x1 PUSH1 0xA0 SHL SUB DUP2 AND SWAP5 SWAP1 DUP6 SWAP1 SUB PUSH2 0x2B7 JUMPI PUSH2 0x97E PUSH2 0x12AA JUMP JUMPDEST ADDRESS DUP6 EQ PUSH2 0xA9F JUMPI DUP2 MLOAD PUSH4 0x70A08231 PUSH1 0xE0 SHL DUP2 MSTORE ADDRESS DUP3 DUP3 ADD MSTORE SWAP1 DUP4 DUP3 PUSH1 0x24 DUP2 DUP10 GAS STATICCALL SWAP2 DUP3 ISZERO PUSH2 0xA95 JUMPI DUP6 SWAP3 PUSH2 0xA62 JUMPI JUMPDEST POP DUP2 ISZERO PUSH2 0xA27 JUMPI DUP3 MLOAD PUSH4 0xA9059CBB PUSH1 0xE0 SHL DUP2 MSTORE CALLER SWAP2 DUP2 ADD SWAP2 DUP3 MSTORE PUSH1 0x20 DUP3 ADD SWAP3 SWAP1 SWAP3 MSTORE SWAP1 SWAP2 SWAP1 DUP4 SWAP1 DUP4 SWAP1 DUP2 SWAP1 SUB PUSH1 0x40 ADD DUP2 DUP8 DUP10 GAS CALL SWAP1 DUP2 ISZERO PUSH2 0xA1E JUMPI POP PUSH2 0x9F1 JUMPI DUP3 DUP1 RETURN JUMPDEST DUP2 PUSH2 0xA10 SWAP3 SWAP1 RETURNDATASIZE LT PUSH2 0xA17 JUMPI JUMPDEST PUSH2 0xA08 DUP2 DUP4 PUSH2 0x1750 JUMP JUMPDEST DUP2 ADD SWAP1 PUSH2 0x266B JUMP JUMPDEST POP DUP2 DUP1 DUP3 DUP1 RETURN JUMPDEST POP RETURNDATASIZE PUSH2 0x9FE JUMP JUMPDEST MLOAD RETURNDATASIZE DUP6 DUP3 RETURNDATACOPY RETURNDATASIZE SWAP1 REVERT JUMPDEST DUP3 MLOAD PUSH3 0x461BCD PUSH1 0xE5 SHL DUP2 MSTORE SWAP1 DUP2 ADD DUP5 SWAP1 MSTORE PUSH1 0x15 PUSH1 0x24 DUP3 ADD MSTORE PUSH21 0x4E6F20746F6B656E7320746F207769746864726177 PUSH1 0x58 SHL PUSH1 0x44 DUP3 ADD MSTORE PUSH1 0x64 SWAP1 REVERT JUMPDEST SWAP1 SWAP2 POP DUP4 DUP2 DUP2 RETURNDATASIZE DUP4 GT PUSH2 0xA8E JUMPI JUMPDEST PUSH2 0xA7A DUP2 DUP4 PUSH2 0x1750 JUMP JUMPDEST DUP2 ADD SUB SLT PUSH2 0xA8A JUMPI MLOAD SWAP1 DUP7 PUSH2 0x9AD JUMP JUMPDEST DUP5 DUP1 REVERT JUMPDEST POP RETURNDATASIZE PUSH2 0xA70 JUMP JUMPDEST DUP4 MLOAD RETURNDATASIZE DUP8 DUP3 RETURNDATACOPY RETURNDATASIZE SWAP1 REVERT JUMPDEST DUP3 PUSH1 0x64 SWAP3 MLOAD SWAP2 PUSH3 0x461BCD PUSH1 0xE5 SHL DUP4 MSTORE DUP3 ADD MSTORE PUSH1 0x1B PUSH1 0x24 DUP3 ADD MSTORE PUSH32 0x43616E6E6F74207769746864726177205A4F4E4520746F6B656E730000000000 PUSH1 0x44 DUP3 ADD MSTORE REVERT JUMPDEST SWAP1 POP CALLVALUE PUSH2 0x342 JUMPI PUSH1 0x20 CALLDATASIZE PUSH1 0x3 NOT ADD SLT PUSH2 0x342 JUMPI PUSH2 0xAFB PUSH2 0x1263 JUMP JUMPDEST PUSH2 0xB03 PUSH2 0x12AA JUMP JUMPDEST PUSH1 0x1 PUSH1 0x1 PUSH1 0xA0 SHL SUB AND SWAP2 DUP3 ISZERO PUSH2 0xB30 JUMPI POP POP PUSH12 0xFFFFFFFFFFFFFFFFFFFFFFFF PUSH1 0xA0 SHL PUSH1 0xC SLOAD AND OR PUSH1 0xC SSTORE DUP1 RETURN JUMPDEST SWAP1 PUSH1 0x20 PUSH1 0x64 SWAP3 MLOAD SWAP2 PUSH3 0x461BCD PUSH1 0xE5 SHL DUP4 MSTORE DUP3 ADD MSTORE PUSH1 0x1F PUSH1 0x24 DUP3 ADD MSTORE PUSH32 0x4D61726B6574696E672077616C6C65742063616E6E6F74206265207A65726F00 PUSH1 0x44 DUP3 ADD MSTORE REVERT JUMPDEST POP POP CALLVALUE PUSH2 0x244 JUMPI DUP2 PUSH1 0x3 NOT CALLDATASIZE ADD SLT PUSH2 0x244 JUMPI PUSH1 0x20 SWAP1 PUSH1 0xFF PUSH1 0x5 SLOAD AND SWAP1 MLOAD SWAP1 ISZERO ISZERO DUP2 MSTORE RETURN JUMPDEST POP POP CALLVALUE PUSH2 0x244 JUMPI PUSH1 0x20 CALLDATASIZE PUSH1 0x3 NOT ADD SLT PUSH2 0x244 JUMPI PUSH1 0x20 SWAP2 PUSH1 0xFF SWAP1 DUP3 SWAP1 PUSH1 0x1 PUSH1 0x1 PUSH1 0xA0 SHL SUB PUSH2 0xBC2 PUSH2 0x1263 JUMP JUMPDEST AND DUP2 MSTORE PUSH1 0xF DUP6 MSTORE KECCAK256 SLOAD AND SWAP1 MLOAD SWAP1 ISZERO ISZERO DUP2 MSTORE RETURN JUMPDEST POP POP CALLVALUE PUSH2 0x244 JUMPI DUP2 PUSH1 0x3 NOT CALLDATASIZE ADD SLT PUSH2 0x244 JUMPI PUSH1 0x20 SWAP1 PUSH1 0x8 SLOAD SWAP1 MLOAD SWAP1 DUP2 MSTORE RETURN JUMPDEST DUP4 SWAP1 CALLVALUE PUSH2 0x244 JUMPI PUSH1 0x20 CALLDATASIZE PUSH1 0x3 NOT ADD SLT PUSH2 0x244 JUMPI PUSH2 0xC0F PUSH2 0x12AA JUMP JUMPDEST CALLDATALOAD PUSH1 0x11 SSTORE DUP1 RETURN JUMPDEST DUP4 SWAP1 CALLVALUE PUSH2 0x244 JUMPI PUSH1 0x20 CALLDATASIZE PUSH1 0x3 NOT ADD SLT PUSH2 0x244 JUMPI PUSH2 0x33F SWAP1 CALLDATALOAD CALLER PUSH2 0x190D JUMP JUMPDEST SWAP1 POP CALLVALUE PUSH2 0x342 JUMPI DUP3 PUSH1 0x3 NOT CALLDATASIZE ADD SLT PUSH2 0x342 JUMPI PUSH2 0xC4E PUSH2 0x149E JUMP JUMPDEST PUSH1 0x5 SLOAD SWAP1 PUSH1 0xFF DUP3 AND ISZERO PUSH2 0xC90 JUMPI POP PUSH1 0xFF NOT AND PUSH1 0x5 SSTORE MLOAD CALLER DUP2 MSTORE PUSH32 0x5DB9EE0A495BF2E6FF9C91A7834C1BA4FDD244A5E8AA4E537BD38AEAE4B073AA SWAP1 PUSH1 0x20 SWAP1 LOG1 DUP1 RETURN JUMPDEST PUSH1 0x64 SWAP1 PUSH1 0x20 DUP5 MLOAD SWAP2 PUSH3 0x461BCD PUSH1 0xE5 SHL DUP4 MSTORE DUP3 ADD MSTORE PUSH1 0x14 PUSH1 0x24 DUP3 ADD MSTORE PUSH20 0x14185D5CD8589B194E881B9BDD081C185D5CD959 PUSH1 0x62 SHL PUSH1 0x44 DUP3 ADD MSTORE REVERT JUMPDEST POP POP CALLVALUE PUSH2 0x244 JUMPI DUP1 PUSH1 0x3 NOT CALLDATASIZE ADD SLT PUSH2 0x244 JUMPI PUSH2 0x453 PUSH1 0x20 SWAP3 PUSH2 0xD13 PUSH2 0xCED PUSH2 0x1263 JUMP JUMPDEST CALLER DUP4 MSTORE PUSH1 0x1 DUP7 MSTORE DUP5 DUP4 KECCAK256 PUSH1 0x1 PUSH1 0x1 PUSH1 0xA0 SHL SUB DUP3 AND DUP5 MSTORE DUP7 MSTORE SWAP2 DUP5 SWAP1 KECCAK256 SLOAD PUSH1 0x24 CALLDATALOAD SWAP1 PUSH2 0x17E8 JUMP JUMPDEST SWAP1 CALLER PUSH2 0x180B JUMP JUMPDEST DUP4 SWAP2 POP CALLVALUE PUSH2 0x244 JUMPI DUP3 PUSH1 0x3 NOT CALLDATASIZE ADD SLT PUSH2 0x244 JUMPI PUSH2 0xD35 PUSH2 0x127E JUMP JUMPDEST SWAP1 CALLER PUSH1 0x1 PUSH1 0x1 PUSH1 0xA0 SHL SUB DUP4 AND SUB PUSH2 0xD51 JUMPI SWAP1 PUSH2 0x33F SWAP2 CALLDATALOAD PUSH2 0x1772 JUMP JUMPDEST PUSH1 0x84 SWAP1 PUSH1 0x20 DUP6 MLOAD SWAP2 PUSH3 0x461BCD PUSH1 0xE5 SHL DUP4 MSTORE DUP3 ADD MSTORE PUSH1 0x2F PUSH1 0x24 DUP3 ADD MSTORE PUSH32 0x416363657373436F6E74726F6C3A2063616E206F6E6C792072656E6F756E6365 PUSH1 0x44 DUP3 ADD MSTORE PUSH15 0x103937B632B9903337B91039B2B633 PUSH1 0x89 SHL PUSH1 0x64 DUP3 ADD MSTORE REVERT JUMPDEST POP POP CALLVALUE PUSH2 0x244 JUMPI DUP2 PUSH1 0x3 NOT CALLDATASIZE ADD SLT PUSH2 0x244 JUMPI PUSH1 0x20 SWAP1 MLOAD PUSH1 0x12 DUP2 MSTORE RETURN JUMPDEST POP POP CALLVALUE PUSH2 0x244 JUMPI DUP2 PUSH1 0x3 NOT CALLDATASIZE ADD SLT PUSH2 0x244 JUMPI PUSH1 0x20 SWAP1 MLOAD PUSH11 0x52B7D2DCC80CD2E4000000 DUP2 MSTORE RETURN JUMPDEST POP POP CALLVALUE PUSH2 0x244 JUMPI DUP2 PUSH1 0x3 NOT CALLDATASIZE ADD SLT PUSH2 0x244 JUMPI PUSH1 0xD SLOAD SWAP1 MLOAD PUSH1 0x1 PUSH1 0x1 PUSH1 0xA0 SHL SUB SWAP1 SWAP2 AND DUP2 MSTORE PUSH1 0x20 SWAP1 RETURN JUMPDEST SWAP1 POP CALLVALUE PUSH2 0x342 JUMPI DUP2 PUSH1 0x3 NOT CALLDATASIZE ADD SLT PUSH2 0x342 JUMPI CALLDATALOAD SWAP1 PUSH2 0xE33 PUSH2 0x127E JUMP JUMPDEST SWAP1 DUP3 DUP5 MSTORE PUSH1 0x6 PUSH1 0x20 MSTORE PUSH2 0xE4B PUSH1 0x1 DUP3 DUP7 KECCAK256 ADD SLOAD PUSH2 0x15E4 JUMP JUMPDEST DUP3 DUP5 MSTORE PUSH1 0x6 PUSH1 0x20 SWAP1 DUP2 MSTORE DUP2 DUP6 KECCAK256 PUSH1 0x1 PUSH1 0x1 PUSH1 0xA0 SHL SUB SWAP1 SWAP4 AND DUP1 DUP7 MSTORE SWAP3 SWAP1 MSTORE DUP1 DUP5 KECCAK256 SLOAD PUSH1 0xFF AND ISZERO PUSH2 0xE79 JUMPI DUP4 DUP1 RETURN JUMPDEST DUP3 DUP5 MSTORE PUSH1 0x6 PUSH1 0x20 MSTORE DUP1 DUP5 KECCAK256 DUP3 DUP6 MSTORE PUSH1 0x20 MSTORE DUP4 KECCAK256 PUSH1 0x1 PUSH1 0xFF NOT DUP3 SLOAD AND OR SWAP1 SSTORE CALLER SWAP2 PUSH32 0x2F8788117E7EFF1D82E926EC794901D17C78024A50270940304540A733656F0D DUP5 DUP1 LOG4 CODESIZE DUP1 DUP1 DUP4 DUP1 RETURN JUMPDEST SWAP2 SWAP1 POP CALLVALUE PUSH2 0x342 JUMPI PUSH2 0xED5 CALLDATASIZE PUSH2 0x1294 JUMP JUMPDEST SWAP3 SWAP1 SWAP2 PUSH2 0xEE0 PUSH2 0x12AA JUMP JUMPDEST PUSH2 0x3E8 PUSH2 0xEED DUP6 DUP6 PUSH2 0x17E8 JUMP JUMPDEST GT PUSH2 0xEFD JUMPI POP POP PUSH1 0xA SSTORE PUSH1 0xB SSTORE DUP1 RETURN JUMPDEST SWAP1 PUSH1 0x20 PUSH1 0x64 SWAP3 MLOAD SWAP2 PUSH3 0x461BCD PUSH1 0xE5 SHL DUP4 MSTORE DUP3 ADD MSTORE PUSH1 0x14 PUSH1 0x24 DUP3 ADD MSTORE PUSH20 0xA8DEE8C2D840E6D0C2E4CA40E8DEDE40D0D2CED PUSH1 0x63 SHL PUSH1 0x44 DUP3 ADD MSTORE REVERT JUMPDEST SWAP1 POP CALLVALUE PUSH2 0x342 JUMPI PUSH1 0x20 CALLDATASIZE PUSH1 0x3 NOT ADD SLT PUSH2 0x342 JUMPI DUP2 PUSH1 0x20 SWAP4 PUSH1 0x1 SWAP3 CALLDATALOAD DUP2 MSTORE PUSH1 0x6 DUP6 MSTORE KECCAK256 ADD SLOAD SWAP1 MLOAD SWAP1 DUP2 MSTORE RETURN JUMPDEST SWAP1 POP DUP3 CALLVALUE PUSH2 0x51C JUMPI PUSH1 0x60 CALLDATASIZE PUSH1 0x3 NOT ADD SLT PUSH2 0x51C JUMPI PUSH2 0xF7E PUSH2 0x1263 JUMP JUMPDEST SWAP2 DUP4 PUSH2 0xF88 PUSH2 0x127E JUMP JUMPDEST SWAP3 PUSH2 0xF97 PUSH1 0x44 CALLDATALOAD DUP1 SWAP6 DUP8 PUSH2 0x1C0B JUMP JUMPDEST PUSH1 0x1 PUSH1 0x1 PUSH1 0xA0 SHL SUB DUP6 AND DUP2 MSTORE PUSH1 0x1 PUSH1 0x20 SWAP1 DUP2 MSTORE DUP3 DUP3 KECCAK256 CALLER DUP4 MSTORE SWAP1 MSTORE KECCAK256 SLOAD SWAP1 DUP3 DUP3 LT PUSH2 0xFCC JUMPI PUSH1 0x20 DUP6 PUSH2 0x453 DUP6 DUP6 SUB CALLER DUP9 PUSH2 0x180B JUMP JUMPDEST PUSH1 0x84 SWAP1 PUSH1 0x20 DUP7 MLOAD SWAP2 PUSH3 0x461BCD PUSH1 0xE5 SHL DUP4 MSTORE DUP3 ADD MSTORE PUSH1 0x28 PUSH1 0x24 DUP3 ADD MSTORE PUSH32 0x45524332303A207472616E7366657220616D6F756E7420657863656564732061 PUSH1 0x44 DUP3 ADD MSTORE PUSH8 0x6C6C6F77616E6365 PUSH1 0xC0 SHL PUSH1 0x64 DUP3 ADD MSTORE REVERT JUMPDEST POP POP CALLVALUE PUSH2 0x244 JUMPI DUP2 PUSH1 0x3 NOT CALLDATASIZE ADD SLT PUSH2 0x244 JUMPI PUSH1 0x20 SWAP1 PUSH1 0x2 SLOAD SWAP1 MLOAD SWAP1 DUP2 MSTORE RETURN JUMPDEST POP POP CALLVALUE PUSH2 0x244 JUMPI DUP2 PUSH1 0x3 NOT CALLDATASIZE ADD SLT PUSH2 0x244 JUMPI MLOAD PUSH32 0x0 PUSH1 0x1 PUSH1 0x1 PUSH1 0xA0 SHL SUB AND DUP2 MSTORE PUSH1 0x20 SWAP1 RETURN JUMPDEST POP POP CALLVALUE PUSH2 0x244 JUMPI DUP1 PUSH1 0x3 NOT CALLDATASIZE ADD SLT PUSH2 0x244 JUMPI PUSH1 0x20 SWAP1 PUSH2 0x453 PUSH2 0x10A3 PUSH2 0x1263 JUMP JUMPDEST PUSH1 0x24 CALLDATALOAD SWAP1 CALLER PUSH2 0x180B JUMP JUMPDEST POP POP CALLVALUE PUSH2 0x244 JUMPI DUP2 PUSH1 0x3 NOT CALLDATASIZE ADD SLT PUSH2 0x244 JUMPI PUSH1 0x20 SWAP1 PUSH1 0xB SLOAD SWAP1 MLOAD SWAP1 DUP2 MSTORE RETURN JUMPDEST SWAP2 SWAP1 POP CALLVALUE PUSH2 0x342 JUMPI DUP3 PUSH1 0x3 NOT CALLDATASIZE ADD SLT PUSH2 0x342 JUMPI DUP1 MLOAD SWAP2 DUP4 PUSH1 0x3 SLOAD SWAP1 PUSH1 0x1 SWAP1 DUP3 DUP3 SHR SWAP3 DUP3 DUP2 AND DUP1 ISZERO PUSH2 0x11B7 JUMPI JUMPDEST PUSH1 0x20 SWAP6 DUP7 DUP7 LT DUP3 EQ PUSH2 0x11A4 JUMPI POP DUP5 DUP9 MSTORE SWAP1 DUP2 ISZERO PUSH2 0x1182 JUMPI POP PUSH1 0x1 EQ PUSH2 0x1129 JUMPI JUMPDEST PUSH2 0x5C9 DUP7 DUP7 PUSH2 0x5BF DUP3 DUP12 SUB DUP4 PUSH2 0x1750 JUMP JUMPDEST SWAP3 SWAP6 POP PUSH1 0x3 DUP4 MSTORE PUSH32 0xC2575A0E9E593C00F959F8C92F12DB2869C3395A3B0502D05E2516446F71F85B JUMPDEST DUP3 DUP5 LT PUSH2 0x116F JUMPI POP POP POP DUP3 PUSH2 0x5C9 SWAP5 PUSH2 0x5BF SWAP3 DUP3 ADD ADD SWAP5 CODESIZE PUSH2 0x1118 JUMP JUMPDEST DUP1 SLOAD DUP7 DUP6 ADD DUP9 ADD MSTORE SWAP3 DUP7 ADD SWAP3 DUP2 ADD PUSH2 0x1152 JUMP JUMPDEST PUSH1 0xFF NOT AND DUP8 DUP7 ADD MSTORE POP POP POP ISZERO ISZERO PUSH1 0x5 SHL DUP4 ADD ADD SWAP3 POP PUSH2 0x5BF DUP3 PUSH2 0x5C9 CODESIZE PUSH2 0x1118 JUMP JUMPDEST PUSH4 0x4E487B71 PUSH1 0xE0 SHL DUP5 MSTORE PUSH1 0x22 SWAP1 MSTORE PUSH1 0x24 DUP4 REVERT JUMPDEST SWAP4 PUSH1 0x7F AND SWAP4 PUSH2 0x10F8 JUMP JUMPDEST DUP5 SWAP2 CALLVALUE PUSH2 0x342 JUMPI PUSH1 0x20 CALLDATASIZE PUSH1 0x3 NOT ADD SLT PUSH2 0x342 JUMPI CALLDATALOAD PUSH4 0xFFFFFFFF PUSH1 0xE0 SHL DUP2 AND DUP1 SWAP2 SUB PUSH2 0x342 JUMPI PUSH1 0x20 SWAP3 POP PUSH4 0x7965DB0B PUSH1 0xE0 SHL DUP2 EQ SWAP1 DUP2 ISZERO PUSH2 0x1203 JUMPI JUMPDEST POP ISZERO ISZERO DUP2 MSTORE RETURN JUMPDEST PUSH4 0x1FFC9A7 PUSH1 0xE0 SHL EQ SWAP1 POP DUP4 PUSH2 0x11FC JUMP JUMPDEST PUSH1 0x0 JUMPDEST DUP4 DUP2 LT PUSH2 0x1227 JUMPI POP POP PUSH1 0x0 SWAP2 ADD MSTORE JUMP JUMPDEST DUP2 DUP2 ADD MLOAD DUP4 DUP3 ADD MSTORE PUSH1 0x20 ADD PUSH2 0x1217 JUMP JUMPDEST PUSH1 0x40 SWAP2 PUSH1 0x20 DUP3 MSTORE PUSH2 0x1257 DUP2 MLOAD DUP1 SWAP3 DUP2 PUSH1 0x20 DUP7 ADD MSTORE PUSH1 0x20 DUP7 DUP7 ADD SWAP2 ADD PUSH2 0x1214 JUMP JUMPDEST PUSH1 0x1F ADD PUSH1 0x1F NOT AND ADD ADD SWAP1 JUMP JUMPDEST PUSH1 0x4 CALLDATALOAD SWAP1 PUSH1 0x1 PUSH1 0x1 PUSH1 0xA0 SHL SUB DUP3 AND DUP3 SUB PUSH2 0x1279 JUMPI JUMP JUMPDEST PUSH1 0x0 DUP1 REVERT JUMPDEST PUSH1 0x24 CALLDATALOAD SWAP1 PUSH1 0x1 PUSH1 0x1 PUSH1 0xA0 SHL SUB DUP3 AND DUP3 SUB PUSH2 0x1279 JUMPI JUMP JUMPDEST PUSH1 0x40 SWAP1 PUSH1 0x3 NOT ADD SLT PUSH2 0x1279 JUMPI PUSH1 0x4 CALLDATALOAD SWAP1 PUSH1 0x24 CALLDATALOAD SWAP1 JUMP JUMPDEST CALLER PUSH1 0x0 SWAP1 DUP2 MSTORE PUSH32 0x54CDD369E4E8A8515E52CA72EC816C2101831AD1F18BF44102ED171459C9B4F8 PUSH1 0x20 SWAP1 DUP2 MSTORE PUSH1 0x40 DUP1 DUP4 KECCAK256 SLOAD SWAP1 SWAP3 SWAP1 PUSH1 0xFF AND ISZERO PUSH2 0x12EC JUMPI POP POP POP JUMP JUMPDEST PUSH2 0x12F5 CALLER PUSH2 0x1A4E JUMP JUMPDEST DUP4 MLOAD SWAP1 DUP3 PUSH2 0x1302 DUP4 PUSH2 0x1734 JUMP JUMPDEST PUSH1 0x42 DUP4 MSTORE DUP5 DUP4 ADD SWAP4 PUSH1 0x60 CALLDATASIZE DUP7 CALLDATACOPY DUP4 MLOAD ISZERO PUSH2 0x148A JUMPI PUSH1 0x30 DUP6 MSTORE8 DUP4 MLOAD SWAP1 PUSH1 0x1 SWAP2 DUP3 LT ISZERO PUSH2 0x148A JUMPI SWAP1 PUSH1 0x78 PUSH1 0x21 DUP7 ADD MSTORE8 PUSH1 0x41 SWAP2 JUMPDEST DUP2 DUP4 GT PUSH2 0x141C JUMPI POP POP POP PUSH2 0x13DA JUMPI PUSH2 0x1388 SWAP4 DUP6 SWAP4 PUSH2 0x13C0 SWAP4 PUSH2 0x13B1 PUSH1 0x48 SWAP5 PUSH2 0x13D6 SWAP10 MLOAD SWAP9 DUP6 PUSH23 0x20B1B1B2B9B9A1B7B73A3937B61D1030B1B1B7BAB73A1 PUSH1 0x4D SHL DUP12 SWAP8 DUP9 ADD MSTORE DUP3 MLOAD SWAP3 DUP4 SWAP2 PUSH1 0x37 DUP10 ADD SWAP2 ADD PUSH2 0x1214 JUMP JUMPDEST DUP5 ADD SWAP2 PUSH17 0x1034B99036B4B9B9B4B733903937B6329 PUSH1 0x7D SHL PUSH1 0x37 DUP5 ADD MSTORE MLOAD DUP1 SWAP4 DUP7 DUP5 ADD SWAP1 PUSH2 0x1214 JUMP JUMPDEST ADD SUB PUSH1 0x28 DUP2 ADD DUP6 MSTORE ADD DUP4 PUSH2 0x1750 JUMP JUMPDEST MLOAD PUSH3 0x461BCD PUSH1 0xE5 SHL DUP2 MSTORE SWAP2 DUP3 SWAP2 PUSH1 0x4 DUP4 ADD PUSH2 0x1237 JUMP JUMPDEST SUB SWAP1 REVERT JUMPDEST PUSH1 0x64 DUP5 DUP7 MLOAD SWAP1 PUSH3 0x461BCD PUSH1 0xE5 SHL DUP3 MSTORE DUP1 PUSH1 0x4 DUP4 ADD MSTORE PUSH1 0x24 DUP3 ADD MSTORE PUSH32 0x537472696E67733A20686578206C656E67746820696E73756666696369656E74 PUSH1 0x44 DUP3 ADD MSTORE REVERT JUMPDEST SWAP1 SWAP2 SWAP3 PUSH1 0xF DUP2 AND PUSH1 0x10 DUP2 LT ISZERO PUSH2 0x1476 JUMPI PUSH16 0x181899199A1A9B1B9C1CB0B131B232B3 PUSH1 0x81 SHL SWAP1 BYTE PUSH2 0x144C DUP6 DUP9 PUSH2 0x1A27 JUMP JUMPDEST MSTORE8 PUSH1 0x4 SHR SWAP3 DUP1 ISZERO PUSH2 0x1462 JUMPI PUSH1 0x0 NOT ADD SWAP2 SWAP1 PUSH2 0x1333 JUMP JUMPDEST PUSH4 0x4E487B71 PUSH1 0xE0 SHL DUP3 MSTORE PUSH1 0x11 PUSH1 0x4 MSTORE PUSH1 0x24 DUP3 REVERT JUMPDEST PUSH4 0x4E487B71 PUSH1 0xE0 SHL DUP4 MSTORE PUSH1 0x32 PUSH1 0x4 MSTORE PUSH1 0x24 DUP4 REVERT JUMPDEST PUSH4 0x4E487B71 PUSH1 0xE0 SHL DUP2 MSTORE PUSH1 0x32 PUSH1 0x4 MSTORE PUSH1 0x24 SWAP1 REVERT JUMPDEST CALLER PUSH1 0x0 SWAP1 DUP2 MSTORE PUSH32 0xE09F975E15F8F53F24CBBC282B13C40B84DF485FCDB8D3997FA103DC5A4EF841 PUSH1 0x20 SWAP1 DUP2 MSTORE PUSH1 0x40 DUP1 DUP4 KECCAK256 SLOAD SWAP1 SWAP3 SWAP1 PUSH32 0x65D7A28E3265B37A6474929F336521B332C1681B933F6CB9F3376673440D862A SWAP1 PUSH1 0xFF AND ISZERO PUSH2 0x1503 JUMPI POP POP POP POP JUMP JUMPDEST PUSH2 0x150C CALLER PUSH2 0x1A4E JUMP JUMPDEST DUP5 MLOAD SWAP2 PUSH2 0x1518 DUP4 PUSH2 0x1734 JUMP JUMPDEST PUSH1 0x42 DUP4 MSTORE DUP5 DUP4 ADD SWAP4 PUSH1 0x60 CALLDATASIZE DUP7 CALLDATACOPY DUP4 MLOAD ISZERO PUSH2 0x148A JUMPI PUSH1 0x30 DUP6 MSTORE8 DUP4 MLOAD SWAP1 PUSH1 0x1 SWAP2 DUP3 LT ISZERO PUSH2 0x148A JUMPI SWAP1 PUSH1 0x78 PUSH1 0x21 DUP7 ADD MSTORE8 PUSH1 0x41 SWAP2 JUMPDEST DUP2 DUP4 GT PUSH2 0x159E JUMPI POP POP POP PUSH2 0x13DA JUMPI PUSH2 0x1388 SWAP4 DUP6 SWAP4 PUSH2 0x13C0 SWAP4 PUSH2 0x13B1 PUSH1 0x48 SWAP5 PUSH2 0x13D6 SWAP10 MLOAD SWAP9 DUP6 PUSH23 0x20B1B1B2B9B9A1B7B73A3937B61D1030B1B1B7BAB73A1 PUSH1 0x4D SHL DUP12 SWAP8 DUP9 ADD MSTORE DUP3 MLOAD SWAP3 DUP4 SWAP2 PUSH1 0x37 DUP10 ADD SWAP2 ADD PUSH2 0x1214 JUMP JUMPDEST SWAP1 SWAP2 SWAP3 PUSH1 0xF DUP2 AND PUSH1 0x10 DUP2 LT ISZERO PUSH2 0x1476 JUMPI PUSH16 0x181899199A1A9B1B9C1CB0B131B232B3 PUSH1 0x81 SHL SWAP1 BYTE PUSH2 0x15CE DUP6 DUP9 PUSH2 0x1A27 JUMP JUMPDEST MSTORE8 PUSH1 0x4 SHR SWAP3 DUP1 ISZERO PUSH2 0x1462 JUMPI PUSH1 0x0 NOT ADD SWAP2 SWAP1 PUSH2 0x1549 JUMP JUMPDEST PUSH1 0x0 DUP2 DUP2 MSTORE PUSH1 0x20 SWAP1 PUSH1 0x6 DUP3 MSTORE PUSH1 0x40 SWAP3 DUP4 DUP3 KECCAK256 CALLER DUP4 MSTORE DUP4 MSTORE PUSH1 0xFF DUP5 DUP4 KECCAK256 SLOAD AND ISZERO PUSH2 0x160D JUMPI POP POP POP POP JUMP JUMPDEST PUSH2 0x1616 CALLER PUSH2 0x1A4E JUMP JUMPDEST DUP5 MLOAD SWAP2 PUSH2 0x1622 DUP4 PUSH2 0x1734 JUMP JUMPDEST PUSH1 0x42 DUP4 MSTORE DUP5 DUP4 ADD SWAP4 PUSH1 0x60 CALLDATASIZE DUP7 CALLDATACOPY DUP4 MLOAD ISZERO PUSH2 0x148A JUMPI PUSH1 0x30 DUP6 MSTORE8 DUP4 MLOAD SWAP1 PUSH1 0x1 SWAP2 DUP3 LT ISZERO PUSH2 0x148A JUMPI SWAP1 PUSH1 0x78 PUSH1 0x21 DUP7 ADD MSTORE8 PUSH1 0x41 SWAP2 JUMPDEST DUP2 DUP4 GT PUSH2 0x16A8 JUMPI POP POP POP PUSH2 0x13DA JUMPI PUSH2 0x1388 SWAP4 DUP6 SWAP4 PUSH2 0x13C0 SWAP4 PUSH2 0x13B1 PUSH1 0x48 SWAP5 PUSH2 0x13D6 SWAP10 MLOAD SWAP9 DUP6 PUSH23 0x20B1B1B2B9B9A1B7B73A3937B61D1030B1B1B7BAB73A1 PUSH1 0x4D SHL DUP12 SWAP8 DUP9 ADD MSTORE DUP3 MLOAD SWAP3 DUP4 SWAP2 PUSH1 0x37 DUP10 ADD SWAP2 ADD PUSH2 0x1214 JUMP JUMPDEST SWAP1 SWAP2 SWAP3 PUSH1 0xF DUP2 AND PUSH1 0x10 DUP2 LT ISZERO PUSH2 0x1476 JUMPI PUSH16 0x181899199A1A9B1B9C1CB0B131B232B3 PUSH1 0x81 SHL SWAP1 BYTE PUSH2 0x16D8 DUP6 DUP9 PUSH2 0x1A27 JUMP JUMPDEST MSTORE8 PUSH1 0x4 SHR SWAP3 DUP1 ISZERO PUSH2 0x1462 JUMPI PUSH1 0x0 NOT ADD SWAP2 SWAP1 PUSH2 0x1653 JUMP JUMPDEST PUSH8 0xFFFFFFFFFFFFFFFF DUP2 GT PUSH2 0x1702 JUMPI PUSH1 0x40 MSTORE JUMP JUMPDEST PUSH4 0x4E487B71 PUSH1 0xE0 SHL PUSH1 0x0 MSTORE PUSH1 0x41 PUSH1 0x4 MSTORE PUSH1 0x24 PUSH1 0x0 REVERT JUMPDEST PUSH1 0x60 DUP2 ADD SWAP1 DUP2 LT PUSH8 0xFFFFFFFFFFFFFFFF DUP3 GT OR PUSH2 0x1702 JUMPI PUSH1 0x40 MSTORE JUMP JUMPDEST PUSH1 0x80 DUP2 ADD SWAP1 DUP2 LT PUSH8 0xFFFFFFFFFFFFFFFF DUP3 GT OR PUSH2 0x1702 JUMPI PUSH1 0x40 MSTORE JUMP JUMPDEST SWAP1 PUSH1 0x1F DUP1 NOT SWAP2 ADD AND DUP2 ADD SWAP1 DUP2 LT PUSH8 0xFFFFFFFFFFFFFFFF DUP3 GT OR PUSH2 0x1702 JUMPI PUSH1 0x40 MSTORE JUMP JUMPDEST SWAP1 PUSH1 0x0 SWAP2 DUP1 DUP4 MSTORE PUSH1 0x6 PUSH1 0x20 MSTORE PUSH1 0x40 DUP4 KECCAK256 SWAP2 PUSH1 0x1 DUP1 PUSH1 0xA0 SHL SUB AND SWAP2 DUP3 DUP5 MSTORE PUSH1 0x20 MSTORE PUSH1 0xFF PUSH1 0x40 DUP5 KECCAK256 SLOAD AND PUSH2 0x17A3 JUMPI POP POP POP JUMP JUMPDEST DUP1 DUP4 MSTORE PUSH1 0x6 PUSH1 0x20 MSTORE PUSH1 0x40 DUP4 KECCAK256 DUP3 DUP5 MSTORE PUSH1 0x20 MSTORE PUSH1 0x40 DUP4 KECCAK256 PUSH1 0xFF NOT DUP2 SLOAD AND SWAP1 SSTORE PUSH32 0xF6391F5C32D9C69D2A47EA670B442974B53935D1EDC7FD64EB21E047A839171B CALLER SWAP4 DUP1 LOG4 JUMP JUMPDEST SWAP2 SWAP1 DUP3 ADD DUP1 SWAP3 GT PUSH2 0x17F5 JUMPI JUMP JUMPDEST PUSH4 0x4E487B71 PUSH1 0xE0 SHL PUSH1 0x0 MSTORE PUSH1 0x11 PUSH1 0x4 MSTORE PUSH1 0x24 PUSH1 0x0 REVERT JUMPDEST PUSH1 0x1 PUSH1 0x1 PUSH1 0xA0 SHL SUB SWAP1 DUP2 AND SWAP2 DUP3 ISZERO PUSH2 0x18BC JUMPI AND SWAP2 DUP3 ISZERO PUSH2 0x186C JUMPI PUSH1 0x20 PUSH32 0x8C5BE1E5EBEC7D5BD14F71427D1E84F3DD0314C0F7B2291E5B200AC8C7C3B925 SWAP2 DUP4 PUSH1 0x0 MSTORE PUSH1 0x1 DUP3 MSTORE PUSH1 0x40 PUSH1 0x0 KECCAK256 DUP6 PUSH1 0x0 MSTORE DUP3 MSTORE DUP1 PUSH1 0x40 PUSH1 0x0 KECCAK256 SSTORE PUSH1 0x40 MLOAD SWAP1 DUP2 MSTORE LOG3 JUMP JUMPDEST PUSH1 0x40 MLOAD PUSH3 0x461BCD PUSH1 0xE5 SHL DUP2 MSTORE PUSH1 0x20 PUSH1 0x4 DUP3 ADD MSTORE PUSH1 0x22 PUSH1 0x24 DUP3 ADD MSTORE PUSH32 0x45524332303A20617070726F766520746F20746865207A65726F206164647265 PUSH1 0x44 DUP3 ADD MSTORE PUSH2 0x7373 PUSH1 0xF0 SHL PUSH1 0x64 DUP3 ADD MSTORE PUSH1 0x84 SWAP1 REVERT JUMPDEST PUSH1 0x40 MLOAD PUSH3 0x461BCD PUSH1 0xE5 SHL DUP2 MSTORE PUSH1 0x20 PUSH1 0x4 DUP3 ADD MSTORE PUSH1 0x24 DUP1 DUP3 ADD MSTORE PUSH32 0x45524332303A20617070726F76652066726F6D20746865207A65726F20616464 PUSH1 0x44 DUP3 ADD MSTORE PUSH4 0x72657373 PUSH1 0xE0 SHL PUSH1 0x64 DUP3 ADD MSTORE PUSH1 0x84 SWAP1 REVERT JUMPDEST PUSH1 0x1 PUSH1 0x1 PUSH1 0xA0 SHL SUB AND DUP1 ISZERO PUSH2 0x19C5 JUMPI PUSH1 0x0 SWAP2 DUP2 DUP4 MSTORE DUP3 PUSH1 0x20 MSTORE PUSH1 0x40 DUP4 KECCAK256 SLOAD DUP2 DUP2 LT PUSH2 0x1975 JUMPI DUP2 PUSH32 0xDDF252AD1BE2C89B69C2B068FC378DAA952BA7F163C4A11628F55A4DF523B3EF SWAP3 PUSH1 0x20 SWAP3 DUP6 DUP8 MSTORE DUP7 DUP5 MSTORE SUB PUSH1 0x40 DUP7 KECCAK256 SSTORE DUP1 PUSH1 0x2 SLOAD SUB PUSH1 0x2 SSTORE PUSH1 0x40 MLOAD SWAP1 DUP2 MSTORE LOG3 JUMP JUMPDEST PUSH1 0x40 MLOAD PUSH3 0x461BCD PUSH1 0xE5 SHL DUP2 MSTORE PUSH1 0x20 PUSH1 0x4 DUP3 ADD MSTORE PUSH1 0x22 PUSH1 0x24 DUP3 ADD MSTORE PUSH32 0x45524332303A206275726E20616D6F756E7420657863656564732062616C616E PUSH1 0x44 DUP3 ADD MSTORE PUSH2 0x6365 PUSH1 0xF0 SHL PUSH1 0x64 DUP3 ADD MSTORE PUSH1 0x84 SWAP1 REVERT JUMPDEST PUSH1 0x40 MLOAD PUSH3 0x461BCD PUSH1 0xE5 SHL DUP2 MSTORE PUSH1 0x20 PUSH1 0x4 DUP3 ADD MSTORE PUSH1 0x21 PUSH1 0x24 DUP3 ADD MSTORE PUSH32 0x45524332303A206275726E2066726F6D20746865207A65726F20616464726573 PUSH1 0x44 DUP3 ADD MSTORE PUSH1 0x73 PUSH1 0xF8 SHL PUSH1 0x64 DUP3 ADD MSTORE PUSH1 0x84 SWAP1 REVERT JUMPDEST DUP2 DUP2 MUL SWAP3 SWAP2 DUP2 ISZERO SWAP2 DUP5 DIV EQ OR ISZERO PUSH2 0x17F5 JUMPI JUMP JUMPDEST SWAP1 DUP2 MLOAD DUP2 LT ISZERO PUSH2 0x1A38 JUMPI ADD PUSH1 0x20 ADD SWAP1 JUMP JUMPDEST PUSH4 0x4E487B71 PUSH1 0xE0 SHL PUSH1 0x0 MSTORE PUSH1 0x32 PUSH1 0x4 MSTORE PUSH1 0x24 PUSH1 0x0 REVERT JUMPDEST PUSH1 0x40 MLOAD SWAP1 PUSH2 0x1A5B DUP3 PUSH2 0x1718 JUMP JUMPDEST PUSH1 0x2A DUP3 MSTORE PUSH1 0x20 DUP3 ADD PUSH1 0x40 CALLDATASIZE DUP3 CALLDATACOPY DUP3 MLOAD ISZERO PUSH2 0x1A38 JUMPI PUSH1 0x30 SWAP1 MSTORE8 DUP2 MLOAD PUSH1 0x1 SWAP1 DUP2 LT ISZERO PUSH2 0x1A38 JUMPI PUSH1 0x78 PUSH1 0x21 DUP5 ADD MSTORE8 PUSH1 0x29 SWAP1 JUMPDEST DUP1 DUP3 GT PUSH2 0x1ADE JUMPI POP POP PUSH2 0x1A9A JUMPI SWAP1 JUMP JUMPDEST PUSH1 0x64 PUSH1 0x40 MLOAD PUSH3 0x461BCD PUSH1 0xE5 SHL DUP2 MSTORE PUSH1 0x20 PUSH1 0x4 DUP3 ADD MSTORE PUSH1 0x20 PUSH1 0x24 DUP3 ADD MSTORE PUSH32 0x537472696E67733A20686578206C656E67746820696E73756666696369656E74 PUSH1 0x44 DUP3 ADD MSTORE REVERT JUMPDEST SWAP1 SWAP2 PUSH1 0xF DUP2 AND PUSH1 0x10 DUP2 LT ISZERO PUSH2 0x1B37 JUMPI PUSH16 0x181899199A1A9B1B9C1CB0B131B232B3 PUSH1 0x81 SHL SWAP1 BYTE PUSH2 0x1B0D DUP5 DUP7 PUSH2 0x1A27 JUMP JUMPDEST MSTORE8 PUSH1 0x4 SHR SWAP2 DUP1 ISZERO PUSH2 0x1B22 JUMPI PUSH1 0x0 NOT ADD SWAP1 PUSH2 0x1A8A JUMP JUMPDEST PUSH1 0x24 PUSH1 0x0 PUSH4 0x4E487B71 PUSH1 0xE0 SHL DUP2 MSTORE PUSH1 0x11 PUSH1 0x4 MSTORE REVERT JUMPDEST PUSH1 0x24 PUSH1 0x0 PUSH4 0x4E487B71 PUSH1 0xE0 SHL DUP2 MSTORE PUSH1 0x32 PUSH1 0x4 MSTORE REVERT JUMPDEST ISZERO PUSH2 0x1B53 JUMPI JUMP JUMPDEST PUSH1 0x40 MLOAD PUSH3 0x461BCD PUSH1 0xE5 SHL DUP2 MSTORE PUSH1 0x20 PUSH1 0x4 DUP3 ADD MSTORE PUSH1 0x25 PUSH1 0x24 DUP3 ADD MSTORE PUSH32 0x45524332303A207472616E736665722066726F6D20746865207A65726F206164 PUSH1 0x44 DUP3 ADD MSTORE PUSH5 0x6472657373 PUSH1 0xD8 SHL PUSH1 0x64 DUP3 ADD MSTORE PUSH1 0x84 SWAP1 REVERT JUMPDEST ISZERO PUSH2 0x1BAD JUMPI JUMP JUMPDEST PUSH1 0x40 MLOAD PUSH3 0x461BCD PUSH1 0xE5 SHL DUP2 MSTORE PUSH1 0x20 PUSH1 0x4 DUP3 ADD MSTORE PUSH1 0x23 PUSH1 0x24 DUP3 ADD MSTORE PUSH32 0x45524332303A207472616E7366657220746F20746865207A65726F2061646472 PUSH1 0x44 DUP3 ADD MSTORE PUSH3 0x657373 PUSH1 0xE8 SHL PUSH1 0x64 DUP3 ADD MSTORE PUSH1 0x84 SWAP1 REVERT JUMPDEST SWAP2 SWAP1 DUP3 SUB SWAP2 DUP3 GT PUSH2 0x17F5 JUMPI JUMP JUMPDEST PUSH1 0x1 PUSH1 0x1 PUSH1 0xA0 SHL SUB DUP2 AND SWAP3 SWAP2 SWAP1 PUSH2 0x1C23 DUP5 ISZERO ISZERO PUSH2 0x1B4C JUMP JUMPDEST PUSH2 0x1C37 PUSH1 0x1 PUSH1 0x1 PUSH1 0xA0 SHL SUB DUP4 AND ISZERO ISZERO PUSH2 0x1BA6 JUMP JUMPDEST DUP3 ISZERO PUSH2 0x24AF JUMPI PUSH1 0xFF PUSH1 0x5 SLOAD AND PUSH2 0x2472 JUMPI PUSH1 0xFF PUSH1 0x10 SLOAD AND PUSH2 0x2468 JUMPI ADDRESS PUSH1 0x0 MSTORE PUSH1 0x0 PUSH1 0x20 MSTORE PUSH1 0x40 PUSH1 0x0 KECCAK256 SLOAD SWAP4 PUSH1 0x11 SLOAD DUP6 LT ISZERO SWAP1 DUP2 PUSH2 0x245A JUMPI JUMPDEST DUP2 PUSH2 0x2444 JUMPI JUMPDEST DUP2 PUSH2 0x242E JUMPI JUMPDEST DUP2 PUSH2 0x2414 JUMPI JUMPDEST POP DUP1 PUSH2 0x23F1 JUMPI JUMPDEST PUSH2 0x1CF4 JUMPI JUMPDEST PUSH1 0xD SLOAD PUSH2 0x1CCA SWAP5 POP PUSH1 0x1 PUSH1 0x1 PUSH1 0xA0 SHL SUB DUP4 DUP2 AND SWAP2 AND EQ DUP1 ISZERO PUSH2 0x1CDD JUMPI JUMPDEST PUSH2 0x1CB6 PUSH2 0x1CBD SWAP2 DUP6 PUSH2 0x25DA JUMP JUMPDEST DUP1 SWAP5 PUSH2 0x1BFE JUMP JUMPDEST SWAP3 DUP1 PUSH2 0x1CCC JUMPI JUMPDEST POP PUSH2 0x2506 JUMP JUMPDEST JUMP JUMPDEST PUSH2 0x1CD7 SWAP1 ADDRESS DUP4 PUSH2 0x2506 JUMP JUMPDEST CODESIZE PUSH2 0x1CC4 JUMP JUMPDEST POP PUSH1 0xE SLOAD PUSH1 0x1 PUSH1 0x1 PUSH1 0xA0 SHL SUB DUP4 DUP2 AND SWAP2 AND EQ PUSH2 0x1CA9 JUMP JUMPDEST PUSH1 0x1 PUSH1 0xFF NOT PUSH1 0x10 SLOAD AND OR PUSH1 0x10 SSTORE PUSH1 0xA SLOAD PUSH2 0x1D1B PUSH2 0x1D11 DUP3 DUP8 PUSH2 0x1A14 JUMP JUMPDEST SWAP2 PUSH1 0xB SLOAD SWAP1 PUSH2 0x17E8 JUMP JUMPDEST SWAP5 DUP6 ISZERO PUSH2 0x23DB JUMPI PUSH2 0x1D2F SWAP1 DUP7 DUP4 DIV SWAP1 PUSH2 0x1BFE JUMP JUMPDEST DUP1 PUSH2 0x23BE JUMPI JUMPDEST POP DUP5 DUP2 DIV PUSH2 0x1D53 JUMPI JUMPDEST POP PUSH2 0x1CCA SWAP4 POP PUSH1 0xFF NOT PUSH1 0x10 SLOAD AND PUSH1 0x10 SSTORE PUSH2 0x1C8C JUMP JUMPDEST PUSH1 0x40 MLOAD PUSH2 0x1D5F DUP2 PUSH2 0x1718 JUMP JUMPDEST PUSH1 0x2 DUP2 MSTORE PUSH1 0x40 CALLDATASIZE PUSH1 0x20 DUP4 ADD CALLDATACOPY ADDRESS PUSH2 0x1D75 DUP3 PUSH2 0x2633 JUMP JUMPDEST MSTORE PUSH1 0x40 MLOAD PUSH4 0x15AB88C9 PUSH1 0xE3 SHL DUP2 MSTORE PUSH1 0x20 DUP2 PUSH1 0x4 DUP2 PUSH32 0x0 PUSH1 0x1 PUSH1 0x1 PUSH1 0xA0 SHL SUB AND GAS STATICCALL SWAP1 DUP2 ISZERO PUSH2 0x21E5 JUMPI PUSH1 0x0 SWAP2 PUSH2 0x237C JUMPI JUMPDEST POP PUSH2 0x1DCE DUP3 PUSH2 0x2640 JUMP JUMPDEST PUSH1 0x1 PUSH1 0x1 PUSH1 0xA0 SHL SUB SWAP2 DUP3 AND SWAP1 MSTORE PUSH2 0x1E0E SWAP1 DUP8 DUP5 DIV PUSH1 0x2 SHR SWAP1 PUSH32 0x0 AND ADDRESS PUSH2 0x180B JUMP JUMPDEST PUSH32 0x0 PUSH1 0x1 PUSH1 0x1 PUSH1 0xA0 SHL SUB AND EXTCODESIZE ISZERO PUSH2 0x1279 JUMPI PUSH1 0x40 MLOAD DUP1 SWAP2 PUSH4 0x5C11D795 PUSH1 0xE0 SHL DUP3 MSTORE PUSH1 0xA4 DUP3 ADD DUP9 DUP6 DIV PUSH1 0x2 SHR PUSH1 0x4 DUP5 ADD MSTORE PUSH1 0x0 PUSH1 0x24 DUP5 ADD MSTORE PUSH1 0xA0 PUSH1 0x44 DUP5 ADD MSTORE DUP2 MLOAD DUP1 SWAP2 MSTORE PUSH1 0x20 PUSH1 0xC4 DUP5 ADD SWAP3 ADD SWAP1 PUSH1 0x0 JUMPDEST DUP2 DUP2 LT PUSH2 0x235A JUMPI POP POP ADDRESS PUSH1 0x64 DUP5 ADD MSTORE POP TIMESTAMP PUSH1 0x84 DUP4 ADD MSTORE PUSH1 0x0 SWAP2 SWAP1 DUP2 SWAP1 SUB DUP2 DUP4 PUSH32 0x0 PUSH1 0x1 PUSH1 0x1 PUSH1 0xA0 SHL SUB AND GAS CALL DUP1 ISZERO PUSH2 0x21E5 JUMPI PUSH2 0x234B JUMPI JUMPDEST POP SELFBALANCE DUP1 PUSH2 0x2275 JUMPI JUMPDEST POP PUSH1 0x40 MLOAD PUSH2 0x1EE6 DUP2 PUSH2 0x1718 JUMP JUMPDEST PUSH1 0x2 DUP2 MSTORE PUSH1 0x40 CALLDATASIZE PUSH1 0x20 DUP4 ADD CALLDATACOPY ADDRESS PUSH2 0x1EFC DUP3 PUSH2 0x2633 JUMP JUMPDEST MSTORE PUSH20 0x55D398326F99059FF775485246999027B3197955 PUSH2 0x1F1B DUP3 PUSH2 0x2640 JUMP JUMPDEST MSTORE PUSH2 0x1F55 DUP7 DUP4 DIV PUSH1 0x2 SHR PUSH32 0x0 PUSH1 0x1 PUSH1 0x1 PUSH1 0xA0 SHL SUB AND ADDRESS PUSH2 0x180B JUMP JUMPDEST PUSH32 0x0 PUSH1 0x1 PUSH1 0x1 PUSH1 0xA0 SHL SUB AND EXTCODESIZE ISZERO PUSH2 0x1279 JUMPI PUSH1 0x40 MLOAD DUP1 SWAP2 PUSH4 0x5C11D795 PUSH1 0xE0 SHL DUP3 MSTORE PUSH1 0xA4 DUP3 ADD DUP9 DUP6 DIV PUSH1 0x2 SHR PUSH1 0x4 DUP5 ADD MSTORE PUSH1 0x0 PUSH1 0x24 DUP5 ADD MSTORE PUSH1 0xA0 PUSH1 0x44 DUP5 ADD MSTORE DUP2 MLOAD DUP1 SWAP2 MSTORE PUSH1 0x20 PUSH1 0xC4 DUP5 ADD SWAP3 ADD SWAP1 PUSH1 0x0 JUMPDEST DUP2 DUP2 LT PUSH2 0x2253 JUMPI POP POP ADDRESS PUSH1 0x64 DUP5 ADD MSTORE POP TIMESTAMP PUSH1 0x84 DUP4 ADD MSTORE PUSH1 0x0 SWAP2 SWAP1 DUP2 SWAP1 SUB DUP2 DUP4 PUSH32 0x0 PUSH1 0x1 PUSH1 0x1 PUSH1 0xA0 SHL SUB AND GAS CALL DUP1 ISZERO PUSH2 0x21E5 JUMPI PUSH2 0x2244 JUMPI JUMPDEST POP PUSH1 0x40 MLOAD PUSH4 0x70A08231 PUSH1 0xE0 SHL DUP2 MSTORE ADDRESS PUSH1 0x4 DUP3 ADD MSTORE SWAP5 PUSH1 0x20 DUP7 PUSH1 0x24 DUP2 PUSH20 0x55D398326F99059FF775485246999027B3197955 GAS STATICCALL SWAP6 DUP7 ISZERO PUSH2 0x21E5 JUMPI PUSH1 0x0 SWAP7 PUSH2 0x2210 JUMPI JUMPDEST POP DUP6 PUSH2 0x2066 JUMPI JUMPDEST POP PUSH2 0x1D3E JUMP JUMPDEST PUSH2 0x2079 SWAP2 DIV PUSH1 0x2 DUP2 SWAP1 SHR SWAP1 PUSH1 0x1 SHR PUSH2 0x1BFE JUMP JUMPDEST SWAP4 PUSH2 0x20AE DUP6 PUSH32 0x0 PUSH1 0x1 PUSH1 0x1 PUSH1 0xA0 SHL SUB AND ADDRESS PUSH2 0x180B JUMP JUMPDEST PUSH1 0x40 MLOAD PUSH4 0x95EA7B3 PUSH1 0xE0 SHL DUP2 MSTORE PUSH1 0x1 PUSH1 0x1 PUSH1 0xA0 SHL SUB PUSH32 0x0 AND PUSH1 0x4 DUP3 ADD MSTORE PUSH1 0x24 DUP2 ADD DUP3 SWAP1 MSTORE PUSH1 0x20 DUP2 PUSH1 0x44 DUP2 PUSH1 0x0 PUSH20 0x55D398326F99059FF775485246999027B3197955 GAS CALL DUP1 ISZERO PUSH2 0x21E5 JUMPI PUSH2 0x21F1 JUMPI JUMPDEST POP PUSH1 0x40 MLOAD SWAP5 PUSH3 0xE8E337 PUSH1 0xE8 SHL DUP7 MSTORE ADDRESS PUSH1 0x4 DUP8 ADD MSTORE PUSH20 0x55D398326F99059FF775485246999027B3197955 PUSH1 0x24 DUP8 ADD MSTORE PUSH1 0x44 DUP7 ADD MSTORE PUSH1 0x64 DUP6 ADD MSTORE PUSH1 0x0 PUSH1 0x84 DUP6 ADD MSTORE PUSH1 0x0 PUSH1 0xA4 DUP6 ADD MSTORE ADDRESS PUSH1 0xC4 DUP6 ADD MSTORE TIMESTAMP PUSH1 0xE4 DUP6 ADD MSTORE PUSH1 0x60 DUP5 PUSH2 0x104 DUP2 PUSH1 0x0 PUSH1 0x1 DUP1 PUSH1 0xA0 SHL SUB PUSH32 0x0 AND GAS CALL SWAP4 DUP5 ISZERO PUSH2 0x21E5 JUMPI PUSH2 0x1CCA SWAP5 PUSH2 0x21B7 JUMPI JUMPDEST DUP1 PUSH2 0x2060 JUMP JUMPDEST PUSH2 0x21D7 SWAP1 PUSH1 0x60 RETURNDATASIZE DUP2 GT PUSH2 0x21DE JUMPI JUMPDEST PUSH2 0x21CF DUP2 DUP4 PUSH2 0x1750 JUMP JUMPDEST DUP2 ADD SWAP1 PUSH2 0x2650 JUMP JUMPDEST POP POP PUSH2 0x21B1 JUMP JUMPDEST POP RETURNDATASIZE PUSH2 0x21C5 JUMP JUMPDEST PUSH1 0x40 MLOAD RETURNDATASIZE PUSH1 0x0 DUP3 RETURNDATACOPY RETURNDATASIZE SWAP1 REVERT JUMPDEST PUSH2 0x2209 SWAP1 PUSH1 0x20 RETURNDATASIZE PUSH1 0x20 GT PUSH2 0xA17 JUMPI PUSH2 0xA08 DUP2 DUP4 PUSH2 0x1750 JUMP JUMPDEST POP CODESIZE PUSH2 0x211B JUMP JUMPDEST SWAP1 SWAP6 POP PUSH1 0x20 DUP2 RETURNDATASIZE PUSH1 0x20 GT PUSH2 0x223C JUMPI JUMPDEST DUP2 PUSH2 0x222C PUSH1 0x20 SWAP4 DUP4 PUSH2 0x1750 JUMP JUMPDEST DUP2 ADD SUB SLT PUSH2 0x1279 JUMPI MLOAD SWAP5 CODESIZE PUSH2 0x2059 JUMP JUMPDEST RETURNDATASIZE SWAP2 POP PUSH2 0x221F JUMP JUMPDEST PUSH2 0x224D SWAP1 PUSH2 0x16EE JUMP JUMPDEST CODESIZE PUSH2 0x2018 JUMP JUMPDEST DUP3 MLOAD PUSH1 0x1 PUSH1 0x1 PUSH1 0xA0 SHL SUB AND DUP5 MSTORE DUP6 SWAP5 POP PUSH1 0x20 SWAP4 DUP5 ADD SWAP4 SWAP1 SWAP3 ADD SWAP2 PUSH1 0x1 ADD PUSH2 0x1FC2 JUMP JUMPDEST PUSH1 0x60 PUSH2 0x228B DUP8 DUP5 DIV PUSH1 0x2 SHR DUP9 DUP6 DIV PUSH1 0x1 SHR PUSH2 0x1BFE JUMP JUMPDEST PUSH2 0x22BF DUP2 PUSH32 0x0 PUSH1 0x1 PUSH1 0x1 PUSH1 0xA0 SHL SUB AND ADDRESS PUSH2 0x180B JUMP JUMPDEST PUSH1 0xC4 PUSH1 0x40 MLOAD DUP1 SWAP5 DUP2 SWAP4 PUSH4 0xF305D719 PUSH1 0xE0 SHL DUP4 MSTORE ADDRESS PUSH1 0x4 DUP5 ADD MSTORE PUSH1 0x24 DUP4 ADD MSTORE PUSH1 0x0 PUSH1 0x44 DUP4 ADD MSTORE PUSH1 0x0 PUSH1 0x64 DUP4 ADD MSTORE ADDRESS PUSH1 0x84 DUP4 ADD MSTORE TIMESTAMP PUSH1 0xA4 DUP4 ADD MSTORE PUSH1 0x1 DUP1 PUSH1 0xA0 SHL SUB PUSH32 0x0 AND GAS CALL DUP1 ISZERO PUSH2 0x21E5 JUMPI ISZERO PUSH2 0x1ED9 JUMPI PUSH2 0x2344 SWAP1 PUSH1 0x60 RETURNDATASIZE DUP2 GT PUSH2 0x21DE JUMPI PUSH2 0x21CF DUP2 DUP4 PUSH2 0x1750 JUMP JUMPDEST POP POP PUSH2 0x1ED9 JUMP JUMPDEST PUSH2 0x2354 SWAP1 PUSH2 0x16EE JUMP JUMPDEST CODESIZE PUSH2 0x1ED1 JUMP JUMPDEST DUP3 MLOAD PUSH1 0x1 PUSH1 0x1 PUSH1 0xA0 SHL SUB AND DUP5 MSTORE DUP6 SWAP5 POP PUSH1 0x20 SWAP4 DUP5 ADD SWAP4 SWAP1 SWAP3 ADD SWAP2 PUSH1 0x1 ADD PUSH2 0x1E7B JUMP JUMPDEST SWAP1 POP PUSH1 0x20 DUP2 RETURNDATASIZE PUSH1 0x20 GT PUSH2 0x23B6 JUMPI JUMPDEST DUP2 PUSH2 0x2397 PUSH1 0x20 SWAP4 DUP4 PUSH2 0x1750 JUMP JUMPDEST DUP2 ADD SUB SLT PUSH2 0x1279 JUMPI MLOAD PUSH1 0x1 PUSH1 0x1 PUSH1 0xA0 SHL SUB DUP2 AND DUP2 SUB PUSH2 0x1279 JUMPI CODESIZE PUSH2 0x1DC4 JUMP JUMPDEST RETURNDATASIZE SWAP2 POP PUSH2 0x238A JUMP JUMPDEST PUSH1 0xC SLOAD PUSH2 0x23D5 SWAP2 SWAP1 PUSH1 0x1 PUSH1 0x1 PUSH1 0xA0 SHL SUB AND ADDRESS PUSH2 0x2506 JUMP JUMPDEST CODESIZE PUSH2 0x1D35 JUMP JUMPDEST PUSH4 0x4E487B71 PUSH1 0xE0 SHL PUSH1 0x0 MSTORE PUSH1 0x12 PUSH1 0x4 MSTORE PUSH1 0x24 PUSH1 0x0 REVERT JUMPDEST POP PUSH1 0x1 PUSH1 0x1 PUSH1 0xA0 SHL SUB DUP3 AND PUSH1 0x0 SWAP1 DUP2 MSTORE PUSH1 0xF PUSH1 0x20 MSTORE PUSH1 0x40 SWAP1 KECCAK256 SLOAD PUSH1 0xFF AND ISZERO PUSH2 0x1C87 JUMP JUMPDEST SWAP1 POP PUSH1 0x0 MSTORE PUSH1 0xF PUSH1 0x20 MSTORE PUSH1 0xFF PUSH1 0x40 PUSH1 0x0 KECCAK256 SLOAD AND ISZERO CODESIZE PUSH2 0x1C80 JUMP JUMPDEST PUSH1 0xE SLOAD PUSH1 0x1 PUSH1 0x1 PUSH1 0xA0 SHL SUB AND DUP2 EQ ISZERO SWAP2 POP PUSH2 0x1C7A JUMP JUMPDEST PUSH1 0xD SLOAD PUSH1 0x1 PUSH1 0x1 PUSH1 0xA0 SHL SUB AND DUP2 EQ ISZERO SWAP2 POP PUSH2 0x1C74 JUMP JUMPDEST PUSH1 0x10 SLOAD PUSH1 0xFF AND ISZERO SWAP2 POP PUSH2 0x1C6E JUMP JUMPDEST PUSH2 0x1CCA SWAP4 POP PUSH2 0x2506 JUMP JUMPDEST PUSH1 0x40 MLOAD PUSH3 0x461BCD PUSH1 0xE5 SHL DUP2 MSTORE PUSH1 0x20 PUSH1 0x4 DUP3 ADD MSTORE PUSH1 0x15 PUSH1 0x24 DUP3 ADD MSTORE PUSH21 0x151BDAD95B881D1C985B9CD9995C881C185D5CD959 PUSH1 0x5A SHL PUSH1 0x44 DUP3 ADD MSTORE PUSH1 0x64 SWAP1 REVERT JUMPDEST PUSH1 0x40 MLOAD PUSH3 0x461BCD PUSH1 0xE5 SHL DUP2 MSTORE PUSH1 0x20 PUSH1 0x4 DUP3 ADD MSTORE PUSH1 0x29 PUSH1 0x24 DUP3 ADD MSTORE PUSH32 0x5472616E7366657220616D6F756E74206D757374206265206772656174657220 PUSH1 0x44 DUP3 ADD MSTORE PUSH9 0x7468616E207A65726F PUSH1 0xB8 SHL PUSH1 0x64 DUP3 ADD MSTORE PUSH1 0x84 SWAP1 REVERT JUMPDEST PUSH1 0x1 PUSH1 0x1 PUSH1 0xA0 SHL SUB SWAP1 DUP2 AND SWAP2 PUSH2 0x251D DUP4 ISZERO ISZERO PUSH2 0x1B4C JUMP JUMPDEST AND SWAP2 PUSH2 0x252A DUP4 ISZERO ISZERO PUSH2 0x1BA6 JUMP JUMPDEST PUSH1 0x0 DUP3 DUP2 MSTORE DUP1 PUSH1 0x20 MSTORE PUSH1 0x40 DUP2 KECCAK256 SLOAD SWAP2 DUP1 DUP4 LT PUSH2 0x2586 JUMPI PUSH1 0x40 DUP3 DUP3 PUSH32 0xDDF252AD1BE2C89B69C2B068FC378DAA952BA7F163C4A11628F55A4DF523B3EF SWAP6 DUP8 PUSH1 0x20 SWAP7 MSTORE DUP3 DUP7 MSTORE SUB DUP3 DUP3 KECCAK256 SSTORE DUP7 DUP2 MSTORE KECCAK256 DUP2 DUP2 SLOAD ADD SWAP1 SSTORE PUSH1 0x40 MLOAD SWAP1 DUP2 MSTORE LOG3 JUMP JUMPDEST PUSH1 0x40 MLOAD PUSH3 0x461BCD PUSH1 0xE5 SHL DUP2 MSTORE PUSH1 0x20 PUSH1 0x4 DUP3 ADD MSTORE PUSH1 0x26 PUSH1 0x24 DUP3 ADD MSTORE PUSH32 0x45524332303A207472616E7366657220616D6F756E7420657863656564732062 PUSH1 0x44 DUP3 ADD MSTORE PUSH6 0x616C616E6365 PUSH1 0xD0 SHL PUSH1 0x64 DUP3 ADD MSTORE PUSH1 0x84 SWAP1 REVERT JUMPDEST PUSH1 0x0 SWAP2 CALLER DUP4 MSTORE PUSH1 0xF PUSH1 0x20 MSTORE PUSH1 0xFF PUSH1 0x40 DUP5 KECCAK256 SLOAD AND DUP1 ISZERO PUSH2 0x2622 JUMPI JUMPDEST PUSH2 0x261D JUMPI PUSH2 0x3E8 SWAP3 POP PUSH2 0x2610 SWAP2 SWAP1 ISZERO PUSH2 0x2614 JUMPI PUSH1 0x9 SLOAD SWAP1 PUSH2 0x1A14 JUMP JUMPDEST DIV SWAP1 JUMP JUMPDEST PUSH1 0x8 SLOAD SWAP1 PUSH2 0x1A14 JUMP JUMPDEST POP POP SWAP1 JUMP JUMPDEST POP ORIGIN DUP4 MSTORE PUSH1 0xFF PUSH1 0x40 DUP5 KECCAK256 SLOAD AND PUSH2 0x25F4 JUMP JUMPDEST DUP1 MLOAD ISZERO PUSH2 0x1A38 JUMPI PUSH1 0x20 ADD SWAP1 JUMP JUMPDEST DUP1 MLOAD PUSH1 0x1 LT ISZERO PUSH2 0x1A38 JUMPI PUSH1 0x40 ADD SWAP1 JUMP JUMPDEST SWAP1 DUP2 PUSH1 0x60 SWAP2 SUB SLT PUSH2 0x1279 JUMPI DUP1 MLOAD SWAP2 PUSH1 0x40 PUSH1 0x20 DUP4 ADD MLOAD SWAP3 ADD MLOAD SWAP1 JUMP JUMPDEST SWAP1 DUP2 PUSH1 0x20 SWAP2 SUB SLT PUSH2 0x1279 JUMPI MLOAD DUP1 ISZERO ISZERO DUP2 SUB PUSH2 0x1279 JUMPI SWAP1 JUMP INVALID LOG2 PUSH5 0x6970667358 0x22 SLT KECCAK256 0xC DUP12 PUSH13 0x73FFD8BA17DFA84185C3C2E059 OR 0xAC SUB 0x2C NOT 0x49 0x4C SSTORE PUSH21 0x162EA072CACBD264736F6C634300081400332F8788 GT PUSH31 0x7EFF1D82E926EC794901D17C78024A50270940304540A733656F0D00000000 "},"methodIdentifiers":{"DEFAULT_ADMIN_ROLE()":"a217fddf","INITIAL_SUPPLY()":"2ff2e9dc","PAUSER_ROLE()":"e63ab1e9","TAX_DENOMINATOR()":"a51c9ace","allowance(address,address)":"dd62ed3e","approve(address,uint256)":"095ea7b3","balanceOf(address)":"70a08231","burn(uint256)":"42966c68","burnFrom(address,uint256)":"79cc6790","buyTax()":"4f7041a5","decimals()":"313ce567","decreaseAllowance(address,uint256)":"a457c2d7","emergencyWithdraw(address)":"6ff1c9bc","emergencyWithdrawETH()":"84536017","excludeFromFee(address,bool)":"df8408fe","getRoleAdmin(bytes32)":"248a9ca3","grantRole(bytes32,address)":"2f2ff15d","hasRole(bytes32,address)":"91d14854","increaseAllowance(address,uint256)":"39509351","isExcludedFromFee(address)":"5342acb4","lpPairBNB()":"2f3dd45a","lpPairUSDT()":"96430ec4","lpRewardShare()":"b23bed45","marketingShare()":"09218ee7","marketingWallet()":"75f0a874","minTokensBeforeSwap()":"e5d41c6b","name()":"06fdde03","pause()":"8456cb59","paused()":"5c975abb","renounceRole(bytes32,address)":"36568abe","revokeRole(bytes32,address)":"d547741f","sellTax()":"cc1776d3","setMarketingWallet(address)":"5d098b38","setMinTokensBeforeSwap(uint256)":"48a46473","setShares(uint256,uint256)":"2aca3e7d","setTaxes(uint256,uint256)":"c647b20e","supportsInterface(bytes4)":"01ffc9a7","symbol()":"95d89b41","totalSupply()":"18160ddd","transfer(address,uint256)":"a9059cbb","transferFrom(address,address,uint256)":"23b872dd","uniswapV2Router()":"1694505e","unpause()":"3f4ba83a"}}}}}