{
  "_format": "hh-sol-artifact-1",
  "contractName": "ZoneToken",
  "sourceName": "contracts/token/ZoneToken.sol",
  "abi": [
    {
      "inputs": [
        {
          "internalType": "address",
          "name": "_marketingWallet",
          "type": "address"
        }
      ],
      "stateMutability": "nonpayable",
      "type": "constructor"
    },
    {
      "anonymous": false,
      "inputs": [
        {
          "indexed": true,
          "internalType": "address",
          "name": "owner",
          "type": "address"
        },
        {
          "indexed": true,
          "internalType": "address",
          "name": "spender",
          "type": "address"
        },
        {
          "indexed": false,
          "internalType": "uint256",
          "name": "value",
          "type": "uint256"
        }
      ],
      "name": "Approval",
      "type": "event"
    },
    {
      "anonymous": false,
      "inputs": [
        {
          "indexed": false,
          "internalType": "address",
          "name": "account",
          "type": "address"
        }
      ],
      "name": "Paused",
      "type": "event"
    },
    {
      "anonymous": false,
      "inputs": [
        {
          "indexed": true,
          "internalType": "bytes32",
          "name": "role",
          "type": "bytes32"
        },
        {
          "indexed": true,
          "internalType": "bytes32",
          "name": "previousAdminRole",
          "type": "bytes32"
        },
        {
          "indexed": true,
          "internalType": "bytes32",
          "name": "newAdminRole",
          "type": "bytes32"
        }
      ],
      "name": "RoleAdminChanged",
      "type": "event"
    },
    {
      "anonymous": false,
      "inputs": [
        {
          "indexed": true,
          "internalType": "bytes32",
          "name": "role",
          "type": "bytes32"
        },
        {
          "indexed": true,
          "internalType": "address",
          "name": "account",
          "type": "address"
        },
        {
          "indexed": true,
          "internalType": "address",
          "name": "sender",
          "type": "address"
        }
      ],
      "name": "RoleGranted",
      "type": "event"
    },
    {
      "anonymous": false,
      "inputs": [
        {
          "indexed": true,
          "internalType": "bytes32",
          "name": "role",
          "type": "bytes32"
        },
        {
          "indexed": true,
          "internalType": "address",
          "name": "account",
          "type": "address"
        },
        {
          "indexed": true,
          "internalType": "address",
          "name": "sender",
          "type": "address"
        }
      ],
      "name": "RoleRevoked",
      "type": "event"
    },
    {
      "anonymous": false,
      "inputs": [
        {
          "indexed": true,
          "internalType": "address",
          "name": "from",
          "type": "address"
        },
        {
          "indexed": true,
          "internalType": "address",
          "name": "to",
          "type": "address"
        },
        {
          "indexed": false,
          "internalType": "uint256",
          "name": "value",
          "type": "uint256"
        }
      ],
      "name": "Transfer",
      "type": "event"
    },
    {
      "anonymous": false,
      "inputs": [
        {
          "indexed": false,
          "internalType": "address",
          "name": "account",
          "type": "address"
        }
      ],
      "name": "Unpaused",
      "type": "event"
    },
    {
      "inputs": [],
      "name": "DEFAULT_ADMIN_ROLE",
      "outputs": [
        {
          "internalType": "bytes32",
          "name": "",
          "type": "bytes32"
        }
      ],
      "stateMutability": "view",
      "type": "function"
    },
    {
      "inputs": [],
      "name": "INITIAL_SUPPLY",
      "outputs": [
        {
          "internalType": "uint256",
          "name": "",
          "type": "uint256"
        }
      ],
      "stateMutability": "view",
      "type": "function"
    },
    {
      "inputs": [],
      "name": "PAUSER_ROLE",
      "outputs": [
        {
          "internalType": "bytes32",
          "name": "",
          "type": "bytes32"
        }
      ],
      "stateMutability": "view",
      "type": "function"
    },
    {
      "inputs": [],
      "name": "TAX_DENOMINATOR",
      "outputs": [
        {
          "internalType": "uint256",
          "name": "",
          "type": "uint256"
        }
      ],
      "stateMutability": "view",
      "type": "function"
    },
    {
      "inputs": [
        {
          "internalType": "address",
          "name": "owner",
          "type": "address"
        },
        {
          "internalType": "address",
          "name": "spender",
          "type": "address"
        }
      ],
      "name": "allowance",
      "outputs": [
        {
          "internalType": "uint256",
          "name": "",
          "type": "uint256"
        }
      ],
      "stateMutability": "view",
      "type": "function"
    },
    {
      "inputs": [
        {
          "internalType": "address",
          "name": "spender",
          "type": "address"
        },
        {
          "internalType": "uint256",
          "name": "amount",
          "type": "uint256"
        }
      ],
      "name": "approve",
      "outputs": [
        {
          "internalType": "bool",
          "name": "",
          "type": "bool"
        }
      ],
      "stateMutability": "nonpayable",
      "type": "function"
    },
    {
      "inputs": [
        {
          "internalType": "address",
          "name": "account",
          "type": "address"
        }
      ],
      "name": "balanceOf",
      "outputs": [
        {
          "internalType": "uint256",
          "name": "",
          "type": "uint256"
        }
      ],
      "stateMutability": "view",
      "type": "function"
    },
    {
      "inputs": [
        {
          "internalType": "uint256",
          "name": "amount",
          "type": "uint256"
        }
      ],
      "name": "burn",
      "outputs": [],
      "stateMutability": "nonpayable",
      "type": "function"
    },
    {
      "inputs": [
        {
          "internalType": "address",
          "name": "account",
          "type": "address"
        },
        {
          "internalType": "uint256",
          "name": "amount",
          "type": "uint256"
        }
      ],
      "name": "burnFrom",
      "outputs": [],
      "stateMutability": "nonpayable",
      "type": "function"
    },
    {
      "inputs": [],
      "name": "buyTax",
      "outputs": [
        {
          "internalType": "uint256",
          "name": "",
          "type": "uint256"
        }
      ],
      "stateMutability": "view",
      "type": "function"
    },
    {
      "inputs": [],
      "name": "decimals",
      "outputs": [
        {
          "internalType": "uint8",
          "name": "",
          "type": "uint8"
        }
      ],
      "stateMutability": "view",
      "type": "function"
    },
    {
      "inputs": [
        {
          "internalType": "address",
          "name": "spender",
          "type": "address"
        },
        {
          "internalType": "uint256",
          "name": "subtractedValue",
          "type": "uint256"
        }
      ],
      "name": "decreaseAllowance",
      "outputs": [
        {
          "internalType": "bool",
          "name": "",
          "type": "bool"
        }
      ],
      "stateMutability": "nonpayable",
      "type": "function"
    },
    {
      "inputs": [
        {
          "internalType": "contract IERC20",
          "name": "token",
          "type": "address"
        }
      ],
      "name": "emergencyWithdraw",
      "outputs": [],
      "stateMutability": "nonpayable",
      "type": "function"
    },
    {
      "inputs": [],
      "name": "emergencyWithdrawETH",
      "outputs": [],
      "stateMutability": "nonpayable",
      "type": "function"
    },
    {
      "inputs": [
        {
          "internalType": "address",
          "name": "account",
          "type": "address"
        },
        {
          "internalType": "bool",
          "name": "excluded",
          "type": "bool"
        }
      ],
      "name": "excludeFromFee",
      "outputs": [],
      "stateMutability": "nonpayable",
      "type": "function"
    },
    {
      "inputs": [
        {
          "internalType": "bytes32",
          "name": "role",
          "type": "bytes32"
        }
      ],
      "name": "getRoleAdmin",
      "outputs": [
        {
          "internalType": "bytes32",
          "name": "",
          "type": "bytes32"
        }
      ],
      "stateMutability": "view",
      "type": "function"
    },
    {
      "inputs": [
        {
          "internalType": "bytes32",
          "name": "role",
          "type": "bytes32"
        },
        {
          "internalType": "address",
          "name": "account",
          "type": "address"
        }
      ],
      "name": "grantRole",
      "outputs": [],
      "stateMutability": "nonpayable",
      "type": "function"
    },
    {
      "inputs": [
        {
          "internalType": "bytes32",
          "name": "role",
          "type": "bytes32"
        },
        {
          "internalType": "address",
          "name": "account",
          "type": "address"
        }
      ],
      "name": "hasRole",
      "outputs": [
        {
          "internalType": "bool",
          "name": "",
          "type": "bool"
        }
      ],
      "stateMutability": "view",
      "type": "function"
    },
    {
      "inputs": [
        {
          "internalType": "address",
          "name": "spender",
          "type": "address"
        },
        {
          "internalType": "uint256",
          "name": "addedValue",
          "type": "uint256"
        }
      ],
      "name": "increaseAllowance",
      "outputs": [
        {
          "internalType": "bool",
          "name": "",
          "type": "bool"
        }
      ],
      "stateMutability": "nonpayable",
      "type": "function"
    },
    {
      "inputs": [
        {
          "internalType": "address",
          "name": "",
          "type": "address"
        }
      ],
      "name": "isExcludedFromFee",
      "outputs": [
        {
          "internalType": "bool",
          "name": "",
          "type": "bool"
        }
      ],
      "stateMutability": "view",
      "type": "function"
    },
    {
      "inputs": [],
      "name": "lpPairBNB",
      "outputs": [
        {
          "internalType": "address",
          "name": "",
          "type": "address"
        }
      ],
      "stateMutability": "view",
      "type": "function"
    },
    {
      "inputs": [],
      "name": "lpPairUSDT",
      "outputs": [
        {
          "internalType": "address",
          "name": "",
          "type": "address"
        }
      ],
      "stateMutability": "view",
      "type": "function"
    },
    {
      "inputs": [],
      "name": "lpRewardShare",
      "outputs": [
        {
          "internalType": "uint256",
          "name": "",
          "type": "uint256"
        }
      ],
      "stateMutability": "view",
      "type": "function"
    },
    {
      "inputs": [],
      "name": "marketingShare",
      "outputs": [
        {
          "internalType": "uint256",
          "name": "",
          "type": "uint256"
        }
      ],
      "stateMutability": "view",
      "type": "function"
    },
    {
      "inputs": [],
      "name": "marketingWallet",
      "outputs": [
        {
          "internalType": "address",
          "name": "",
          "type": "address"
        }
      ],
      "stateMutability": "view",
      "type": "function"
    },
    {
      "inputs": [],
      "name": "minTokensBeforeSwap",
      "outputs": [
        {
          "internalType": "uint256",
          "name": "",
          "type": "uint256"
        }
      ],
      "stateMutability": "view",
      "type": "function"
    },
    {
      "inputs": [],
      "name": "name",
      "outputs": [
        {
          "internalType": "string",
          "name": "",
          "type": "string"
        }
      ],
      "stateMutability": "view",
      "type": "function"
    },
    {
      "inputs": [],
      "name": "pause",
      "outputs": [],
      "stateMutability": "nonpayable",
      "type": "function"
    },
    {
      "inputs": [],
      "name": "paused",
      "outputs": [
        {
          "internalType": "bool",
          "name": "",
          "type": "bool"
        }
      ],
      "stateMutability": "view",
      "type": "function"
    },
    {
      "inputs": [
        {
          "internalType": "bytes32",
          "name": "role",
          "type": "bytes32"
        },
        {
          "internalType": "address",
          "name": "account",
          "type": "address"
        }
      ],
      "name": "renounceRole",
      "outputs": [],
      "stateMutability": "nonpayable",
      "type": "function"
    },
    {
      "inputs": [
        {
          "internalType": "bytes32",
          "name": "role",
          "type": "bytes32"
        },
        {
          "internalType": "address",
          "name": "account",
          "type": "address"
        }
      ],
      "name": "revokeRole",
      "outputs": [],
      "stateMutability": "nonpayable",
      "type": "function"
    },
    {
      "inputs": [],
      "name": "sellTax",
      "outputs": [
        {
          "internalType": "uint256",
          "name": "",
          "type": "uint256"
        }
      ],
      "stateMutability": "view",
      "type": "function"
    },
    {
      "inputs": [
        {
          "internalType": "address",
          "name": "_marketingWallet",
          "type": "address"
        }
      ],
      "name": "setMarketingWallet",
      "outputs": [],
      "stateMutability": "nonpayable",
      "type": "function"
    },
    {
      "inputs": [
        {
          "internalType": "uint256",
          "name": "_minTokens",
          "type": "uint256"
        }
      ],
      "name": "setMinTokensBeforeSwap",
      "outputs": [],
      "stateMutability": "nonpayable",
      "type": "function"
    },
    {
      "inputs": [
        {
          "internalType": "uint256",
          "name": "_lpRewardShare",
          "type": "uint256"
        },
        {
          "internalType": "uint256",
          "name": "_marketingShare",
          "type": "uint256"
        }
      ],
      "name": "setShares",
      "outputs": [],
      "stateMutability": "nonpayable",
      "type": "function"
    },
    {
      "inputs": [
        {
          "internalType": "uint256",
          "name": "_buyTax",
          "type": "uint256"
        },
        {
          "internalType": "uint256",
          "name": "_sellTax",
          "type": "uint256"
        }
      ],
      "name": "setTaxes",
      "outputs": [],
      "stateMutability": "nonpayable",
      "type": "function"
    },
    {
      "inputs": [
        {
          "internalType": "bytes4",
          "name": "interfaceId",
          "type": "bytes4"
        }
      ],
      "name": "supportsInterface",
      "outputs": [
        {
          "internalType": "bool",
          "name": "",
          "type": "bool"
        }
      ],
      "stateMutability": "view",
      "type": "function"
    },
    {
      "inputs": [],
      "name": "symbol",
      "outputs": [
        {
          "internalType": "string",
          "name": "",
          "type": "string"
        }
      ],
      "stateMutability": "view",
      "type": "function"
    },
    {
      "inputs": [],
      "name": "totalSupply",
      "outputs": [
        {
          "internalType": "uint256",
          "name": "",
          "type": "uint256"
        }
      ],
      "stateMutability": "view",
      "type": "function"
    },
    {
      "inputs": [
        {
          "internalType": "address",
          "name": "recipient",
          "type": "address"
        },
        {
          "internalType": "uint256",
          "name": "amount",
          "type": "uint256"
        }
      ],
      "name": "transfer",
      "outputs": [
        {
          "internalType": "bool",
          "name": "",
          "type": "bool"
        }
      ],
      "stateMutability": "nonpayable",
      "type": "function"
    },
    {
      "inputs": [
        {
          "internalType": "address",
          "name": "sender",
          "type": "address"
        },
        {
          "internalType": "address",
          "name": "recipient",
          "type": "address"
        },
        {
          "internalType": "uint256",
          "name": "amount",
          "type": "uint256"
        }
      ],
      "name": "transferFrom",
      "outputs": [
        {
          "internalType": "bool",
          "name": "",
          "type": "bool"
        }
      ],
      "stateMutability": "nonpayable",
      "type": "function"
    },
    {
      "inputs": [],
      "name": "uniswapV2Router",
      "outputs": [
        {
          "internalType": "contract IUniswapV2Router02",
          "name": "",
          "type": "address"
        }
      ],
      "stateMutability": "view",
      "type": "function"
    },
    {
      "inputs": [],
      "name": "unpause",
      "outputs": [],
      "stateMutability": "nonpayable",
      "type": "function"
    },
    {
      "stateMutability": "payable",
      "type": "receive"
    }
  ],
  "bytecode": "0x60a0604090808252346200082c57620000329062002f82803803809162000027828562000863565b833981019062000887565b815190620000408262000831565b600a8252602090692d27a722902a37b5b2b760b11b82840152835190620000678262000831565b6004808352635a4f4e4560e01b848401528451909490926001600160401b039081851162000817576003908154956001948588811c981680156200080c575b89891014620007f7578190601f98898111620007a1575b5089908983116001146200073a576000926200072e575b505060001982851b1c191690851b1782555b8051928311620007195787548481811c911680156200070e575b88821014620006f95790818785949311620006a1575b50879087841160011462000636576000936200062a575b505082841b92600019911b1c19161785555b60ff1991826005541660055581600755601e600855601e600955600a80556014600b55683635c9adc5dea0000060115560018060a01b03809116908115620005e95760008052600686528760002033600052865260ff88600020541615620005ae575b7f65d7a28e3265b37a6474929f336521b332c1681b933f6cb9f3376673440d862a80600052600687528860002033600052875260ff8960002054161562000571575b50600c80546001600160a01b031990811690931790557310ed43c718714eb63d5aa57b78b54704e256024e6080819052885163c45a015560e01b8082529193919088818b81885afa908115620005665760009162000544575b508a516315ab88c960e31b8152918b8a848d818a5afa8015620005395760448c9288928f97849060009262000514575b50600091925197889586946364e329cb60e11b9b8c87523090870152166024850152165af191821562000509578a928691600091620004e7575b501684600d541617600d558a8c518097819382525afa938415620004b857600094620004c3575b508951908152308982015287816044816000877355d398326f99059ff775485246999027b3197955998a6024850152165af18015620004b857839160009162000484575b501690600e541617600e5530600052600f865287600020838582541617905533600052876000208385825416179055600c5416600052866000208284825416179055600052856000209182541617905533156200044557506002546a52b7d2dcc80cd2e4000000928382018092116200043057506000917fddf252ad1be2c89b69c2b068fc378daa952ba7f163c4a11628f55a4df523b3ef9160025533835282815284832084815401905584519384523393a3516126b99081620008a9823960805181818161105401528181611d8b01528181611de801528181611e1001528181611e9c01528181611f2701528181611f5701528181611fe301528181612080015281816120c50152818161217f0152818161229101526123000152f35b601190634e487b7160e01b6000525260246000fd5b90606493519262461bcd60e51b845283015260248201527f45524332303a206d696e7420746f20746865207a65726f2061646472657373006044820152fd5b620004a99150893d8b11620004b0575b620004a0818362000863565b81019062000887565b3862000312565b503d62000494565b8a513d6000823e3d90fd5b620004df919450883d8a11620004b057620004a0818362000863565b9238620002ce565b620005029150843d8611620004b057620004a0818362000863565b38620002a7565b8c513d6000823e3d90fd5b600092506200053290873d8911620004b057620004a0818362000863565b916200026d565b50513d6000823e3d90fd5b6200055f9150893d8b11620004b057620004a0818362000863565b386200023d565b8b513d6000823e3d90fd5b8060005260068752886000203360005287528860002084868254161790553390339060008051602062002f62833981519152600080a438620001e4565b6000805260068652876000203360005286528760002083858254161790553333600060008051602062002f628339815191528180a4620001a2565b60648786888b519262461bcd60e51b845283015260248201527f4d61726b6574696e672077616c6c65742063616e6e6f74206265207a65726f006044820152fd5b0151915038806200012d565b9190859450601f198416928a600052896000209360005b8b8282106200068a57505085116200066f575b50505050811b0185556200013f565b01519060f884600019921b161c191690553880808062000660565b83850151875589989096019593840193016200064d565b9091925088600052876000208780860160051c8201928a8710620006ef575b91879187969594930160051c01915b828110620006df57505062000116565b60008155869550879101620006cf565b92508192620006c0565b602289634e487b7160e01b6000525260246000fd5b90607f169062000100565b604188634e487b7160e01b6000525260246000fd5b015190503880620000d4565b90879350601f19831691866000528b6000209260005b8d8282106200078a575050841162000771575b505050811b018255620000e6565b015160001983871b60f8161c1916905538808062000763565b8385015186558b9790950194938401930162000750565b90915084600052896000208980850160051c8201928c8610620007ed575b918991869594930160051c01915b828110620007dd575050620000bd565b60008155859450899101620007cd565b92508192620007bf565b60228a634e487b7160e01b6000525260246000fd5b97607f1697620000a6565b604187634e487b7160e01b6000525260246000fd5b600080fd5b604081019081106001600160401b038211176200084d57604052565b634e487b7160e01b600052604160045260246000fd5b601f909101601f19168101906001600160401b038211908210176200084d57604052565b908160209103126200082c57516001600160a01b03811681036200082c579056fe6080604081815260049182361015610022575b505050361561002057600080fd5b005b600092833560e01c91826301ffc9a7146111c15750816306fdde03146110cc57816309218ee7146110ad578163095ea7b3146110835781631694505e1461103f57816318160ddd1461102057816323b872dd14610f62578163248a9ca314610f375781632aca3e7d14610ec45781632f2ff15d14610e175781632f3dd45a14610dee5781632ff2e9dc14610dc8578163313ce56714610dac57816336568abe14610d1a5781633950935114610cca5781633f4ba83a14610c3457816342966c6814610c1657816348a4647314610bf45781634f7041a514610bd55781635342acb414610b975781635c975abb14610b735781635d098b3814610ae05781636ff1c9bc1461094c57816370a082311461091557816375f0a874146108ec57816379cc67901461083457816384536017146107415781638456cb59146106ad57816391d148541461066657816395d89b411461056357816396430ec41461053a578163a217fddf1461051f578163a457c2d714610477578163a51c9ace1461045a578163a9059cbb14610429578163b23bed451461040a578163c647b20e14610365578163cc1776d314610346578163d547741f1461030357508063dd62ed3e146102bb578063df8408fe14610266578063e5d41c6b146102485763e63ab1e91461020b5780610012565b34610244578160031936011261024457602090517f65d7a28e3265b37a6474929f336521b332c1681b933f6cb9f3376673440d862a8152f35b5080fd5b50346102445781600319360112610244576020906011549051908152f35b503461024457806003193601126102445761027f611263565b90602435918215158093036102b7576102966112aa565b60018060a01b03168352600f60205282209060ff8019835416911617905580f35b8380fd5b5034610244578060031936011261024457806020926102d8611263565b6102e061127e565b6001600160a01b0391821683526001865283832091168252845220549051908152f35b9190503461034257806003193601126103425761033f913561033a600161032861127e565b938387526006602052862001546115e4565b611772565b80f35b8280fd5b5050346102445781600319360112610244576020906009549051908152f35b919050346103425761037636611294565b9290916103816112aa565b606483116103d4576101ea841161039d57505060085560095580f35b906020606492519162461bcd60e51b835282015260116024820152700a6cad8d840e8c2f040e8dede40d0d2ced607b1b6044820152fd5b906020606492519162461bcd60e51b8352820152601060248201526f084eaf240e8c2f040e8dede40d0d2ced60831b6044820152fd5b505034610244578160031936011261024457602090600a549051908152f35b505034610244578060031936011261024457602090610453610449611263565b6024359033611c0b565b5160018152f35b505034610244578160031936011261024457602090516103e88152f35b9050823461051c578260031936011261051c57610492611263565b918360243592338152600160205281812060018060a01b03861682526020522054908282106104cb57602085610453858503873361180b565b608490602086519162461bcd60e51b8352820152602560248201527f45524332303a2064656372656173656420616c6c6f77616e63652062656c6f77604482015264207a65726f60d81b6064820152fd5b80fd5b50503461024457816003193601126102445751908152602090f35b505034610244578160031936011261024457600e5490516001600160a01b039091168152602090f35b838334610244578160031936011261024457805191809380549160019083821c9282851694851561065c575b60209586861081146106495785895290811561062557506001146105cd575b6105c987876105bf828c0383611750565b5191829182611237565b0390f35b81529295507f8a35acfbc15ff81a39ae7d344fd709f28e8600b4aa8c65c6b64bfe7fe36bd19b5b82841061061257505050826105c9946105bf928201019486806105ae565b80548685018801529286019281016105f4565b60ff19168887015250505050151560051b83010192506105bf826105c986806105ae565b634e487b7160e01b845260228352602484fd5b93607f169361058f565b9050346103425781600319360112610342578160209360ff9261068761127e565b90358252600686528282206001600160a01b039091168252855220549151911615158152f35b9050346103425782600319360112610342576106c761149e565b6005549060ff821661070b575060ff1916600117600555513381527f62e78cea01bee320cd4e420270b5ea74000d11b0c9f74754ebdbfc544b05a25890602090a180f35b606490602084519162461bcd60e51b8352820152601060248201526f14185d5cd8589b194e881c185d5cd95960821b6044820152fd5b9190503461034257826003193601126103425761075c6112aa565b4780156107fc578380808093335af13d156107f7573d67ffffffffffffffff81116107e457825190610798601f8201601f191660200183611750565b81528460203d92013e5b156107ab578280f35b906020606492519162461bcd60e51b83528201526013602482015272109390881dda5d1a191c985dc819985a5b1959606a1b6044820152fd5b634e487b7160e01b855260418452602485fd5b6107a2565b815162461bcd60e51b815260208185015260126024820152714e6f20424e4220746f20776974686472617760701b6044820152606490fd5b8391503461024457826003193601126102445761084f611263565b6001600160a01b0381168352600160208181528585203386529052848420546024359390918201610886575b8461033f858561190d565b8382106108a9575061033f939450826108a19103338361180b565b83928561087b565b606490602087519162461bcd60e51b8352820152601d60248201527f45524332303a20696e73756666696369656e7420616c6c6f77616e63650000006044820152fd5b505034610244578160031936011261024457600c5490516001600160a01b039091168152602090f35b5050346102445760203660031901126102445760209181906001600160a01b0361093d611263565b16815280845220549051908152f35b83833461024457602090816003193601126103425783356001600160a01b03811694908590036102b75761097e6112aa565b308514610a9f5781516370a0823160e01b81523082820152908382602481895afa918215610a95578592610a62575b508115610a2757825163a9059cbb60e01b8152339181019182526020820192909252909190839083908190036040018187895af1908115610a1e57506109f1578280f35b81610a1092903d10610a17575b610a088183611750565b81019061266b565b5081808280f35b503d6109fe565b513d85823e3d90fd5b825162461bcd60e51b815290810184905260156024820152744e6f20746f6b656e7320746f20776974686472617760581b6044820152606490fd5b9091508381813d8311610a8e575b610a7a8183611750565b81010312610a8a575190866109ad565b8480fd5b503d610a70565b83513d87823e3d90fd5b82606492519162461bcd60e51b8352820152601b60248201527f43616e6e6f74207769746864726177205a4f4e4520746f6b656e7300000000006044820152fd5b90503461034257602036600319011261034257610afb611263565b610b036112aa565b6001600160a01b0316918215610b305750506bffffffffffffffffffffffff60a01b600c541617600c5580f35b906020606492519162461bcd60e51b8352820152601f60248201527f4d61726b6574696e672077616c6c65742063616e6e6f74206265207a65726f006044820152fd5b50503461024457816003193601126102445760209060ff6005541690519015158152f35b5050346102445760203660031901126102445760209160ff9082906001600160a01b03610bc2611263565b168152600f855220541690519015158152f35b5050346102445781600319360112610244576020906008549051908152f35b83903461024457602036600319011261024457610c0f6112aa565b3560115580f35b8390346102445760203660031901126102445761033f90353361190d565b905034610342578260031936011261034257610c4e61149e565b6005549060ff821615610c90575060ff1916600555513381527f5db9ee0a495bf2e6ff9c91a7834c1ba4fdd244a5e8aa4e537bd38aeae4b073aa90602090a180f35b606490602084519162461bcd60e51b8352820152601460248201527314185d5cd8589b194e881b9bdd081c185d5cd95960621b6044820152fd5b505034610244578060031936011261024457610453602092610d13610ced611263565b338352600186528483206001600160a01b038216845286529184902054602435906117e8565b903361180b565b83915034610244578260031936011261024457610d3561127e565b90336001600160a01b03831603610d51579061033f9135611772565b608490602085519162461bcd60e51b8352820152602f60248201527f416363657373436f6e74726f6c3a2063616e206f6e6c792072656e6f756e636560448201526e103937b632b9903337b91039b2b63360891b6064820152fd5b5050346102445781600319360112610244576020905160128152f35b505034610244578160031936011261024457602090516a52b7d2dcc80cd2e40000008152f35b505034610244578160031936011261024457600d5490516001600160a01b039091168152602090f35b9050346103425781600319360112610342573590610e3361127e565b908284526006602052610e4b600182862001546115e4565b828452600660209081528185206001600160a01b039093168086529290528084205460ff1615610e79578380f35b82845260066020528084208285526020528320600160ff1982541617905533917f2f8788117e7eff1d82e926ec794901d17c78024a50270940304540a733656f0d8480a43880808380f35b9190503461034257610ed536611294565b929091610ee06112aa565b6103e8610eed85856117e8565b11610efd575050600a55600b5580f35b906020606492519162461bcd60e51b835282015260146024820152730a8dee8c2d840e6d0c2e4ca40e8dede40d0d2ced60631b6044820152fd5b9050346103425760203660031901126103425781602093600192358152600685522001549051908152f35b9050823461051c57606036600319011261051c57610f7e611263565b9183610f8861127e565b92610f97604435809587611c0b565b6001600160a01b0385168152600160209081528282203383529052205490828210610fcc57602085610453858503338861180b565b608490602086519162461bcd60e51b8352820152602860248201527f45524332303a207472616e7366657220616d6f756e74206578636565647320616044820152676c6c6f77616e636560c01b6064820152fd5b5050346102445781600319360112610244576020906002549051908152f35b505034610244578160031936011261024457517f00000000000000000000000000000000000000000000000000000000000000006001600160a01b03168152602090f35b5050346102445780600319360112610244576020906104536110a3611263565b602435903361180b565b505034610244578160031936011261024457602090600b549051908152f35b91905034610342578260031936011261034257805191836003549060019082821c9282811680156111b7575b60209586861082146111a457508488529081156111825750600114611129575b6105c986866105bf828b0383611750565b929550600383527fc2575a0e9e593c00f959f8c92f12db2869c3395a3b0502d05e2516446f71f85b5b82841061116f57505050826105c9946105bf928201019438611118565b8054868501880152928601928101611152565b60ff191687860152505050151560051b83010192506105bf826105c938611118565b634e487b7160e01b845260229052602483fd5b93607f16936110f8565b849134610342576020366003190112610342573563ffffffff60e01b81168091036103425760209250637965db0b60e01b8114908115611203575b5015158152f35b6301ffc9a760e01b149050836111fc565b60005b8381106112275750506000910152565b8181015183820152602001611217565b604091602082526112578151809281602086015260208686019101611214565b601f01601f1916010190565b600435906001600160a01b038216820361127957565b600080fd5b602435906001600160a01b038216820361127957565b6040906003190112611279576004359060243590565b3360009081527f54cdd369e4e8a8515e52ca72ec816c2101831ad1f18bf44102ed171459c9b4f8602090815260408083205490929060ff16156112ec57505050565b6112f533611a4e565b8351908261130283611734565b6042835284830193606036863783511561148a576030855383519060019182101561148a5790607860218601536041915b81831161141c575050506113da576113889385936113c0936113b16048946113d69951988576020b1b1b2b9b9a1b7b73a3937b61d1030b1b1b7bab73a1604d1b8b978801528251928391603789019101611214565b8401917001034b99036b4b9b9b4b733903937b6329607d1b603784015251809386840190611214565b01036028810185520183611750565b5162461bcd60e51b815291829160048301611237565b0390fd5b60648486519062461bcd60e51b825280600483015260248201527f537472696e67733a20686578206c656e67746820696e73756666696369656e746044820152fd5b909192600f81166010811015611476576f181899199a1a9b1b9c1cb0b131b232b360811b901a61144c8588611a27565b5360041c92801561146257600019019190611333565b634e487b7160e01b82526011600452602482fd5b634e487b7160e01b83526032600452602483fd5b634e487b7160e01b81526032600452602490fd5b3360009081527fe09f975e15f8f53f24cbbc282b13c40b84df485fcdb8d3997fa103dc5a4ef84160209081526040808320549092907f65d7a28e3265b37a6474929f336521b332c1681b933f6cb9f3376673440d862a9060ff16156115035750505050565b61150c33611a4e565b84519161151883611734565b6042835284830193606036863783511561148a576030855383519060019182101561148a5790607860218601536041915b81831161159e575050506113da576113889385936113c0936113b16048946113d69951988576020b1b1b2b9b9a1b7b73a3937b61d1030b1b1b7bab73a1604d1b8b978801528251928391603789019101611214565b909192600f81166010811015611476576f181899199a1a9b1b9c1cb0b131b232b360811b901a6115ce8588611a27565b5360041c92801561146257600019019190611549565b600081815260209060068252604092838220338352835260ff84832054161561160d5750505050565b61161633611a4e565b84519161162283611734565b6042835284830193606036863783511561148a576030855383519060019182101561148a5790607860218601536041915b8183116116a8575050506113da576113889385936113c0936113b16048946113d69951988576020b1b1b2b9b9a1b7b73a3937b61d1030b1b1b7bab73a1604d1b8b978801528251928391603789019101611214565b909192600f81166010811015611476576f181899199a1a9b1b9c1cb0b131b232b360811b901a6116d88588611a27565b5360041c92801561146257600019019190611653565b67ffffffffffffffff811161170257604052565b634e487b7160e01b600052604160045260246000fd5b6060810190811067ffffffffffffffff82111761170257604052565b6080810190811067ffffffffffffffff82111761170257604052565b90601f8019910116810190811067ffffffffffffffff82111761170257604052565b906000918083526006602052604083209160018060a01b03169182845260205260ff6040842054166117a357505050565b8083526006602052604083208284526020526040832060ff1981541690557ff6391f5c32d9c69d2a47ea670b442974b53935d1edc7fd64eb21e047a839171b339380a4565b919082018092116117f557565b634e487b7160e01b600052601160045260246000fd5b6001600160a01b039081169182156118bc571691821561186c5760207f8c5be1e5ebec7d5bd14f71427d1e84f3dd0314c0f7b2291e5b200ac8c7c3b925918360005260018252604060002085600052825280604060002055604051908152a3565b60405162461bcd60e51b815260206004820152602260248201527f45524332303a20617070726f766520746f20746865207a65726f206164647265604482015261737360f01b6064820152608490fd5b60405162461bcd60e51b8152602060048201526024808201527f45524332303a20617070726f76652066726f6d20746865207a65726f206164646044820152637265737360e01b6064820152608490fd5b6001600160a01b031680156119c55760009181835282602052604083205481811061197557817fddf252ad1be2c89b69c2b068fc378daa952ba7f163c4a11628f55a4df523b3ef926020928587528684520360408620558060025403600255604051908152a3565b60405162461bcd60e51b815260206004820152602260248201527f45524332303a206275726e20616d6f756e7420657863656564732062616c616e604482015261636560f01b6064820152608490fd5b60405162461bcd60e51b815260206004820152602160248201527f45524332303a206275726e2066726f6d20746865207a65726f206164647265736044820152607360f81b6064820152608490fd5b818102929181159184041417156117f557565b908151811015611a38570160200190565b634e487b7160e01b600052603260045260246000fd5b60405190611a5b82611718565b602a8252602082016040368237825115611a3857603090538151600190811015611a3857607860218401536029905b808211611ade575050611a9a5790565b606460405162461bcd60e51b815260206004820152602060248201527f537472696e67733a20686578206c656e67746820696e73756666696369656e746044820152fd5b9091600f81166010811015611b37576f181899199a1a9b1b9c1cb0b131b232b360811b901a611b0d8486611a27565b5360041c918015611b22576000190190611a8a565b60246000634e487b7160e01b81526011600452fd5b60246000634e487b7160e01b81526032600452fd5b15611b5357565b60405162461bcd60e51b815260206004820152602560248201527f45524332303a207472616e736665722066726f6d20746865207a65726f206164604482015264647265737360d81b6064820152608490fd5b15611bad57565b60405162461bcd60e51b815260206004820152602360248201527f45524332303a207472616e7366657220746f20746865207a65726f206164647260448201526265737360e81b6064820152608490fd5b919082039182116117f557565b6001600160a01b038116929190611c23841515611b4c565b611c376001600160a01b0383161515611ba6565b82156124af5760ff600554166124725760ff601054166124685730600052600060205260406000205493601154851015908161245a575b81612444575b8161242e575b81612414575b50806123f1575b611cf4575b600d54611cca94506001600160a01b038381169116148015611cdd575b611cb6611cbd91856125da565b8094611bfe565b9280611ccc575b50612506565b565b611cd7903083612506565b38611cc4565b50600e546001600160a01b03838116911614611ca9565b600160ff196010541617601055600a54611d1b611d118287611a14565b91600b54906117e8565b9485156123db57611d2f9086830490611bfe565b806123be575b50848104611d53575b50611cca935060ff1960105416601055611c8c565b604051611d5f81611718565b60028152604036602083013730611d7582612633565b526040516315ab88c960e31b81526020816004817f00000000000000000000000000000000000000000000000000000000000000006001600160a01b03165afa9081156121e55760009161237c575b50611dce82612640565b6001600160a01b039182169052611e0e9087840460021c907f0000000000000000000000000000000000000000000000000000000000000000163061180b565b7f00000000000000000000000000000000000000000000000000000000000000006001600160a01b03163b15611279576040518091635c11d79560e01b825260a4820188850460021c60048401526000602484015260a060448401528151809152602060c4840192019060005b81811061235a575050306064840152504260848301526000919081900381837f00000000000000000000000000000000000000000000000000000000000000006001600160a01b03165af180156121e55761234b575b504780612275575b50604051611ee681611718565b60028152604036602083013730611efc82612633565b527355d398326f99059ff775485246999027b3197955611f1b82612640565b52611f5586830460021c7f00000000000000000000000000000000000000000000000000000000000000006001600160a01b03163061180b565b7f00000000000000000000000000000000000000000000000000000000000000006001600160a01b03163b15611279576040518091635c11d79560e01b825260a4820188850460021c60048401526000602484015260a060448401528151809152602060c4840192019060005b818110612253575050306064840152504260848301526000919081900381837f00000000000000000000000000000000000000000000000000000000000000006001600160a01b03165af180156121e557612244575b506040516370a0823160e01b8152306004820152946020866024817355d398326f99059ff775485246999027b31979555afa9586156121e557600096612210575b5085612066575b50611d3e565b6120799104600281901c9060011c611bfe565b936120ae857f00000000000000000000000000000000000000000000000000000000000000006001600160a01b03163061180b565b60405163095ea7b360e01b81526001600160a01b037f00000000000000000000000000000000000000000000000000000000000000001660048201526024810182905260208160448160007355d398326f99059ff775485246999027b31979555af180156121e5576121f1575b506040519462e8e33760e81b86523060048701527355d398326f99059ff775485246999027b319795560248701526044860152606485015260006084850152600060a48501523060c48501524260e485015260608461010481600060018060a01b037f0000000000000000000000000000000000000000000000000000000000000000165af19384156121e557611cca946121b7575b80612060565b6121d79060603d81116121de575b6121cf8183611750565b810190612650565b50506121b1565b503d6121c5565b6040513d6000823e3d90fd5b6122099060203d602011610a1757610a088183611750565b503861211b565b9095506020813d60201161223c575b8161222c60209383611750565b8101031261127957519438612059565b3d915061221f565b61224d906116ee565b38612018565b82516001600160a01b0316845285945060209384019390920191600101611fc2565b606061228b87840460021c88850460011c611bfe565b6122bf817f00000000000000000000000000000000000000000000000000000000000000006001600160a01b03163061180b565b60c46040518094819363f305d71960e01b8352306004840152602483015260006044830152600060648301523060848301524260a483015260018060a01b037f0000000000000000000000000000000000000000000000000000000000000000165af180156121e55715611ed9576123449060603d81116121de576121cf8183611750565b5050611ed9565b612354906116ee565b38611ed1565b82516001600160a01b0316845285945060209384019390920191600101611e7b565b90506020813d6020116123b6575b8161239760209383611750565b8101031261127957516001600160a01b03811681036112795738611dc4565b3d915061238a565b600c546123d591906001600160a01b031630612506565b38611d35565b634e487b7160e01b600052601260045260246000fd5b506001600160a01b0382166000908152600f602052604090205460ff1615611c87565b9050600052600f60205260ff604060002054161538611c80565b600e546001600160a01b03168114159150611c7a565b600d546001600160a01b03168114159150611c74565b60105460ff16159150611c6e565b611cca9350612506565b60405162461bcd60e51b8152602060048201526015602482015274151bdad95b881d1c985b9cd9995c881c185d5cd959605a1b6044820152606490fd5b60405162461bcd60e51b815260206004820152602960248201527f5472616e7366657220616d6f756e74206d7573742062652067726561746572206044820152687468616e207a65726f60b81b6064820152608490fd5b6001600160a01b039081169161251d831515611b4c565b169161252a831515611ba6565b60008281528060205260408120549180831061258657604082827fddf252ad1be2c89b69c2b068fc378daa952ba7f163c4a11628f55a4df523b3ef958760209652828652038282205586815220818154019055604051908152a3565b60405162461bcd60e51b815260206004820152602660248201527f45524332303a207472616e7366657220616d6f756e7420657863656564732062604482015265616c616e636560d01b6064820152608490fd5b600091338352600f60205260ff6040842054168015612622575b61261d576103e892506126109190156126145760095490611a14565b0490565b60085490611a14565b505090565b5032835260ff6040842054166125f4565b805115611a385760200190565b805160011015611a385760400190565b90816060910312611279578051916040602083015192015190565b9081602091031261127957518015158103611279579056fea26469706673582212200c8b6c73ffd8ba17dfa84185c3c2e05917ac032c19494c5574162ea072cacbd264736f6c634300081400332f8788117e7eff1d82e926ec794901d17c78024a50270940304540a733656f0d",
  "linkReferences": {},
  "deployedLinkReferences": {}
}